{
  "_format": "hh-sol-artifact-1",
  "contractName": "Marketplace",
  "sourceName": "src/backend/contracts/Marketplace.sol",
  "abi": [
    {
      "inputs": [
        {
          "internalType": "uint256",
          "name": "_feePercent",
          "type": "uint256"
        }
      ],
      "stateMutability": "nonpayable",
      "type": "constructor"
    },
    {
      "anonymous": false,
      "inputs": [
        {
          "indexed": false,
          "internalType": "uint256",
          "name": "itemId",
          "type": "uint256"
        },
        {
          "indexed": true,
          "internalType": "address",
          "name": "nft",
          "type": "address"
        },
        {
          "indexed": false,
          "internalType": "uint256",
          "name": "tokenId",
          "type": "uint256"
        },
        {
          "indexed": false,
          "internalType": "uint256",
          "name": "price",
          "type": "uint256"
        },
        {
          "indexed": true,
          "internalType": "address",
          "name": "seller",
          "type": "address"
        },
        {
          "indexed": true,
          "internalType": "address",
          "name": "buyer",
          "type": "address"
        }
      ],
      "name": "Bought",
      "type": "event"
    },
    {
      "anonymous": false,
      "inputs": [
        {
          "indexed": false,
          "internalType": "uint256",
          "name": "offerId",
          "type": "uint256"
        },
        {
          "indexed": false,
          "internalType": "uint256",
          "name": "itemId",
          "type": "uint256"
        },
        {
          "indexed": true,
          "internalType": "address",
          "name": "seller",
          "type": "address"
        },
        {
          "indexed": true,
          "internalType": "address",
          "name": "buyer",
          "type": "address"
        },
        {
          "indexed": false,
          "internalType": "uint256",
          "name": "price",
          "type": "uint256"
        }
      ],
      "name": "OfferAccepted",
      "type": "event"
    },
    {
      "anonymous": false,
      "inputs": [
        {
          "indexed": false,
          "internalType": "uint256",
          "name": "offerId",
          "type": "uint256"
        },
        {
          "indexed": false,
          "internalType": "uint256",
          "name": "itemId",
          "type": "uint256"
        },
        {
          "indexed": true,
          "internalType": "address",
          "name": "buyer",
          "type": "address"
        }
      ],
      "name": "OfferCancelled",
      "type": "event"
    },
    {
      "anonymous": false,
      "inputs": [
        {
          "indexed": false,
          "internalType": "uint256",
          "name": "offerId",
          "type": "uint256"
        },
        {
          "indexed": false,
          "internalType": "uint256",
          "name": "itemId",
          "type": "uint256"
        },
        {
          "indexed": true,
          "internalType": "address",
          "name": "buyer",
          "type": "address"
        },
        {
          "indexed": false,
          "internalType": "uint256",
          "name": "price",
          "type": "uint256"
        }
      ],
      "name": "OfferMade",
      "type": "event"
    },
    {
      "anonymous": false,
      "inputs": [
        {
          "indexed": false,
          "internalType": "uint256",
          "name": "itemId",
          "type": "uint256"
        },
        {
          "indexed": true,
          "internalType": "address",
          "name": "nft",
          "type": "address"
        },
        {
          "indexed": false,
          "internalType": "uint256",
          "name": "tokenId",
          "type": "uint256"
        },
        {
          "indexed": false,
          "internalType": "uint256",
          "name": "price",
          "type": "uint256"
        },
        {
          "indexed": true,
          "internalType": "address",
          "name": "seller",
          "type": "address"
        }
      ],
      "name": "Offered",
      "type": "event"
    },
    {
      "inputs": [
        {
          "internalType": "uint256",
          "name": "_offerId",
          "type": "uint256"
        }
      ],
      "name": "acceptOffer",
      "outputs": [],
      "stateMutability": "nonpayable",
      "type": "function"
    },
    {
      "inputs": [
        {
          "internalType": "uint256",
          "name": "_offerId",
          "type": "uint256"
        }
      ],
      "name": "cancelOffer",
      "outputs": [],
      "stateMutability": "nonpayable",
      "type": "function"
    },
    {
      "inputs": [],
      "name": "feeAccount",
      "outputs": [
        {
          "internalType": "address payable",
          "name": "",
          "type": "address"
        }
      ],
      "stateMutability": "view",
      "type": "function"
    },
    {
      "inputs": [],
      "name": "feePercent",
      "outputs": [
        {
          "internalType": "uint256",
          "name": "",
          "type": "uint256"
        }
      ],
      "stateMutability": "view",
      "type": "function"
    },
    {
      "inputs": [
        {
          "internalType": "uint256",
          "name": "_itemId",
          "type": "uint256"
        }
      ],
      "name": "getItemOffers",
      "outputs": [
        {
          "internalType": "uint256[]",
          "name": "",
          "type": "uint256[]"
        }
      ],
      "stateMutability": "view",
      "type": "function"
    },
    {
      "inputs": [
        {
          "internalType": "uint256",
          "name": "_offerId",
          "type": "uint256"
        }
      ],
      "name": "getOffer",
      "outputs": [
        {
          "internalType": "uint256",
          "name": "offerId",
          "type": "uint256"
        },
        {
          "internalType": "uint256",
          "name": "itemId",
          "type": "uint256"
        },
        {
          "internalType": "address",
          "name": "buyer",
          "type": "address"
        },
        {
          "internalType": "uint256",
          "name": "price",
          "type": "uint256"
        },
        {
          "internalType": "bool",
          "name": "accepted",
          "type": "bool"
        },
        {
          "internalType": "bool",
          "name": "cancelled",
          "type": "bool"
        }
      ],
      "stateMutability": "view",
      "type": "function"
    },
    {
      "inputs": [
        {
          "internalType": "uint256",
          "name": "_itemId",
          "type": "uint256"
        }
      ],
      "name": "getTotalPrice",
      "outputs": [
        {
          "internalType": "uint256",
          "name": "",
          "type": "uint256"
        }
      ],
      "stateMutability": "view",
      "type": "function"
    },
    {
      "inputs": [],
      "name": "itemCount",
      "outputs": [
        {
          "internalType": "uint256",
          "name": "",
          "type": "uint256"
        }
      ],
      "stateMutability": "view",
      "type": "function"
    },
    {
      "inputs": [
        {
          "internalType": "uint256",
          "name": "",
          "type": "uint256"
        },
        {
          "internalType": "uint256",
          "name": "",
          "type": "uint256"
        }
      ],
      "name": "itemOffers",
      "outputs": [
        {
          "internalType": "uint256",
          "name": "",
          "type": "uint256"
        }
      ],
      "stateMutability": "view",
      "type": "function"
    },
    {
      "inputs": [
        {
          "internalType": "uint256",
          "name": "",
          "type": "uint256"
        }
      ],
      "name": "items",
      "outputs": [
        {
          "internalType": "uint256",
          "name": "itemId",
          "type": "uint256"
        },
        {
          "internalType": "contract IERC721",
          "name": "nft",
          "type": "address"
        },
        {
          "internalType": "uint256",
          "name": "tokenId",
          "type": "uint256"
        },
        {
          "internalType": "uint256",
          "name": "price",
          "type": "uint256"
        },
        {
          "internalType": "address payable",
          "name": "seller",
          "type": "address"
        },
        {
          "internalType": "bool",
          "name": "sold",
          "type": "bool"
        }
      ],
      "stateMutability": "view",
      "type": "function"
    },
    {
      "inputs": [
        {
          "internalType": "contract IERC721",
          "name": "_nft",
          "type": "address"
        },
        {
          "internalType": "uint256",
          "name": "_tokenId",
          "type": "uint256"
        },
        {
          "internalType": "uint256",
          "name": "_price",
          "type": "uint256"
        }
      ],
      "name": "makeItem",
      "outputs": [],
      "stateMutability": "nonpayable",
      "type": "function"
    },
    {
      "inputs": [
        {
          "internalType": "uint256",
          "name": "_itemId",
          "type": "uint256"
        }
      ],
      "name": "makeOffer",
      "outputs": [],
      "stateMutability": "payable",
      "type": "function"
    },
    {
      "inputs": [],
      "name": "offerCount",
      "outputs": [
        {
          "internalType": "uint256",
          "name": "",
          "type": "uint256"
        }
      ],
      "stateMutability": "view",
      "type": "function"
    },
    {
      "inputs": [
        {
          "internalType": "uint256",
          "name": "",
          "type": "uint256"
        }
      ],
      "name": "offers",
      "outputs": [
        {
          "internalType": "uint256",
          "name": "offerId",
          "type": "uint256"
        },
        {
          "internalType": "uint256",
          "name": "itemId",
          "type": "uint256"
        },
        {
          "internalType": "address payable",
          "name": "buyer",
          "type": "address"
        },
        {
          "internalType": "uint256",
          "name": "price",
          "type": "uint256"
        },
        {
          "internalType": "bool",
          "name": "accepted",
          "type": "bool"
        },
        {
          "internalType": "bool",
          "name": "cancelled",
          "type": "bool"
        }
      ],
      "stateMutability": "view",
      "type": "function"
    },
    {
      "inputs": [
        {
          "internalType": "uint256",
          "name": "_itemId",
          "type": "uint256"
        }
      ],
      "name": "purchaseItem",
      "outputs": [],
      "stateMutability": "payable",
      "type": "function"
    }
  ],
  "bytecode": "0x60c06040523480156200001157600080fd5b5060405162002a8838038062002a8883398181016040528101906200003791906200009c565b60016000819055503373ffffffffffffffffffffffffffffffffffffffff1660808173ffffffffffffffffffffffffffffffffffffffff1660601b815250508060a0818152505050620000ec565b6000815190506200009681620000d2565b92915050565b600060208284031215620000af57600080fd5b6000620000bf8482850162000085565b91505092915050565b6000819050919050565b620000dd81620000c8565b8114620000e957600080fd5b50565b60805160601c60a051612957620001316000396000818161052501528181610bee0152610fd70152600081816104ca01528181610ca9015261129001526129576000f3fe6080604052600436106100e85760003560e01c80638a72ea6a1161008a578063ca7dd37511610059578063ca7dd3751461031e578063d38ea5bf1461035b578063ef706adf14610377578063fa00afc7146103a0576100e8565b80638a72ea6a146102555780639a2f647414610297578063bfb231d2146102b3578063c815729d146102f5576100e8565b806365e17c9d116100c657806365e17c9d1461019757806369ae5883146101c25780636bfb0d01146101ff5780637fd6f15c1461022a576100e8565b80631115c24d146100ed57806343b555dd146101185780634579268a14610155575b600080fd5b3480156100f957600080fd5b506101026103c9565b60405161010f91906121d9565b60405180910390f35b34801561012457600080fd5b5061013f600480360381019061013a9190611c40565b6103cf565b60405161014c9190611ff7565b60405180910390f35b34801561016157600080fd5b5061017c60048036038101906101779190611c40565b61043a565b60405161018e969594939291906122df565b60405180910390f35b3480156101a357600080fd5b506101ac6104c8565b6040516101b99190611f6e565b60405180910390f35b3480156101ce57600080fd5b506101e960048036038101906101e49190611c69565b6104ec565b6040516101f691906121d9565b60405180910390f35b34801561020b57600080fd5b5061021461051d565b60405161022191906121d9565b60405180910390f35b34801561023657600080fd5b5061023f610523565b60405161024c91906121d9565b60405180910390f35b34801561026157600080fd5b5061027c60048036038101906102779190611c40565b610547565b60405161028e9695949392919061227e565b60405180910390f35b6102b160048036038101906102ac9190611c40565b6105bd565b005b3480156102bf57600080fd5b506102da60048036038101906102d59190611c40565b610957565b6040516102ec969594939291906121f4565b60405180910390f35b34801561030157600080fd5b5061031c60048036038101906103179190611c40565b6109e0565b005b34801561032a57600080fd5b5061034560048036038101906103409190611c40565b610fd1565b60405161035291906121d9565b60405180910390f35b61037560048036038101906103709190611c40565b611034565b005b34801561038357600080fd5b5061039e60048036038101906103999190611c40565b611495565b005b3480156103ac57600080fd5b506103c760048036038101906103c29190611bf1565b611740565b005b60025481565b60606005600083815260200190815260200160002080548060200260200160405190810160405280929190818152602001828054801561042e57602002820191906000526020600020905b81548152602001906001019080831161041a575b50505050509050919050565b6000806000806000806000600460008981526020019081526020016000209050806000015481600101548260020160009054906101000a900473ffffffffffffffffffffffffffffffffffffffff1683600301548460040160009054906101000a900460ff168560040160019054906101000a900460ff169650965096509650965096505091939550919395565b7f000000000000000000000000000000000000000000000000000000000000000081565b6005602052816000526040600020818154811061050857600080fd5b90600052602060002001600091509150505481565b60015481565b7f000000000000000000000000000000000000000000000000000000000000000081565b60046020528060005260406000206000915090508060000154908060010154908060020160009054906101000a900473ffffffffffffffffffffffffffffffffffffffff16908060030154908060040160009054906101000a900460ff16908060040160019054906101000a900460ff16905086565b60026000541415610603576040517f08c379a00000000000000000000000000000000000000000000000000000000081526004016105fa90612199565b60405180910390fd5b6002600081905550600060036000838152602001908152602001600020905060008211801561063457506001548211155b610673576040517f08c379a000000000000000000000000000000000000000000000000000000000815260040161066a90612099565b60405180910390fd5b8060040160149054906101000a900460ff16156106c5576040517f08c379a00000000000000000000000000000000000000000000000000000000081526004016106bc90612019565b60405180910390fd5b8060040160009054906101000a900473ffffffffffffffffffffffffffffffffffffffff1673ffffffffffffffffffffffffffffffffffffffff163373ffffffffffffffffffffffffffffffffffffffff161415610758576040517f08c379a000000000000000000000000000000000000000000000000000000000815260040161074f90612119565b60405180910390fd5b6000341161079b576040517f08c379a000000000000000000000000000000000000000000000000000000000815260040161079290612039565b60405180910390fd5b600260008154809291906107ae9061259c565b91905055506040518060c0016040528060025481526020018381526020013373ffffffffffffffffffffffffffffffffffffffff16815260200134815260200160001515815260200160001515815250600460006002548152602001908152602001600020600082015181600001556020820151816001015560408201518160020160006101000a81548173ffffffffffffffffffffffffffffffffffffffff021916908373ffffffffffffffffffffffffffffffffffffffff1602179055506060820151816003015560808201518160040160006101000a81548160ff02191690831515021790555060a08201518160040160016101000a81548160ff0219169083151502179055509050506005600083815260200190815260200160002060025490806001815401808255809150506001900390600052602060002001600090919091909150553373ffffffffffffffffffffffffffffffffffffffff167f3b2a24777f28e9c99a6c31e1939554147f5cac067f06527c26a7619c1c6df543600254843460405161094393929190612340565b60405180910390a250600160008190555050565b60036020528060005260406000206000915090508060000154908060010160009054906101000a900473ffffffffffffffffffffffffffffffffffffffff16908060020154908060030154908060040160009054906101000a900473ffffffffffffffffffffffffffffffffffffffff16908060040160149054906101000a900460ff16905086565b60026000541415610a26576040517f08c379a0000000000000000000000000000000000000000000000000000000008152600401610a1d90612199565b60405180910390fd5b600260008190555060006004600083815260200190815260200160002090506000600360008360010154815260200190815260200160002090508060040160009054906101000a900473ffffffffffffffffffffffffffffffffffffffff1673ffffffffffffffffffffffffffffffffffffffff163373ffffffffffffffffffffffffffffffffffffffff1614610af2576040517f08c379a0000000000000000000000000000000000000000000000000000000008152600401610ae990612159565b60405180910390fd5b8060040160149054906101000a900460ff1615610b44576040517f08c379a0000000000000000000000000000000000000000000000000000000008152600401610b3b906121b9565b60405180910390fd5b8160040160009054906101000a900460ff1615610b96576040517f08c379a0000000000000000000000000000000000000000000000000000000008152600401610b8d906120d9565b60405180910390fd5b8160040160019054906101000a900460ff1615610be8576040517f08c379a0000000000000000000000000000000000000000000000000000000008152600401610bdf906120b9565b60405180910390fd5b600060647f00000000000000000000000000000000000000000000000000000000000000008460030154610c1c9190612448565b610c269190612417565b90506000818460030154610c3a91906124a2565b90508260040160009054906101000a900473ffffffffffffffffffffffffffffffffffffffff1673ffffffffffffffffffffffffffffffffffffffff166108fc829081150290604051600060405180830381858888f19350505050158015610ca6573d6000803e3d6000fd5b507f000000000000000000000000000000000000000000000000000000000000000073ffffffffffffffffffffffffffffffffffffffff166108fc839081150290604051600060405180830381858888f19350505050158015610d0d573d6000803e3d6000fd5b5060018460040160006101000a81548160ff02191690831515021790555060018360040160146101000a81548160ff0219169083151502179055508260010160009054906101000a900473ffffffffffffffffffffffffffffffffffffffff1673ffffffffffffffffffffffffffffffffffffffff166323b872dd308660020160009054906101000a900473ffffffffffffffffffffffffffffffffffffffff1686600201546040518463ffffffff1660e01b8152600401610dd193929190611f89565b600060405180830381600087803b158015610deb57600080fd5b505af1158015610dff573d6000803e3d6000fd5b50505050610e11846001015486611a12565b8360020160009054906101000a900473ffffffffffffffffffffffffffffffffffffffff1673ffffffffffffffffffffffffffffffffffffffff168360040160009054906101000a900473ffffffffffffffffffffffffffffffffffffffff1673ffffffffffffffffffffffffffffffffffffffff167f537afea1137614386dde2e3f3f603a09e8ba6fbcd0a9d59b286a6f7e5fc938488787600101548860030154604051610ec293929190612340565b60405180910390a38360020160009054906101000a900473ffffffffffffffffffffffffffffffffffffffff1673ffffffffffffffffffffffffffffffffffffffff168360040160009054906101000a900473ffffffffffffffffffffffffffffffffffffffff1673ffffffffffffffffffffffffffffffffffffffff168460010160009054906101000a900473ffffffffffffffffffffffffffffffffffffffff1673ffffffffffffffffffffffffffffffffffffffff167f8b4c9c8a607d67b321582dd8461041b1dc2ceeca70c8b7f37f8e02095cf2e76d876001015487600201548960030154604051610fba93929190612340565b60405180910390a450505050600160008190555050565b600060647f0000000000000000000000000000000000000000000000000000000000000000606461100291906123c1565b60036000858152602001908152602001600020600301546110239190612448565b61102d9190612417565b9050919050565b6002600054141561107a576040517f08c379a000000000000000000000000000000000000000000000000000000000815260040161107190612199565b60405180910390fd5b6002600081905550600061108d82610fd1565b905060006003600084815260200190815260200160002090506000831180156110b857506001548311155b6110f7576040517f08c379a00000000000000000000000000000000000000000000000000000000081526004016110ee90612099565b60405180910390fd5b8134101561113a576040517f08c379a000000000000000000000000000000000000000000000000000000000815260040161113190612079565b60405180910390fd5b8060040160149054906101000a900460ff161561118c576040517f08c379a000000000000000000000000000000000000000000000000000000000815260040161118390612019565b60405180910390fd5b8060040160009054906101000a900473ffffffffffffffffffffffffffffffffffffffff1673ffffffffffffffffffffffffffffffffffffffff163373ffffffffffffffffffffffffffffffffffffffff16141561121f576040517f08c379a0000000000000000000000000000000000000000000000000000000008152600401611216906120f9565b60405180910390fd5b8060040160009054906101000a900473ffffffffffffffffffffffffffffffffffffffff1673ffffffffffffffffffffffffffffffffffffffff166108fc82600301549081150290604051600060405180830381858888f1935050505015801561128d573d6000803e3d6000fd5b507f000000000000000000000000000000000000000000000000000000000000000073ffffffffffffffffffffffffffffffffffffffff166108fc8260030154846112d891906124a2565b9081150290604051600060405180830381858888f19350505050158015611303573d6000803e3d6000fd5b5060018160040160146101000a81548160ff0219169083151502179055508060010160009054906101000a900473ffffffffffffffffffffffffffffffffffffffff1673ffffffffffffffffffffffffffffffffffffffff166323b872dd303384600201546040518463ffffffff1660e01b815260040161138693929190611fc0565b600060405180830381600087803b1580156113a057600080fd5b505af11580156113b4573d6000803e3d6000fd5b505050503373ffffffffffffffffffffffffffffffffffffffff168160040160009054906101000a900473ffffffffffffffffffffffffffffffffffffffff1673ffffffffffffffffffffffffffffffffffffffff168260010160009054906101000a900473ffffffffffffffffffffffffffffffffffffffff1673ffffffffffffffffffffffffffffffffffffffff167f8b4c9c8a607d67b321582dd8461041b1dc2ceeca70c8b7f37f8e02095cf2e76d868560020154866003015460405161148093929190612340565b60405180910390a45050600160008190555050565b600260005414156114db576040517f08c379a00000000000000000000000000000000000000000000000000000000081526004016114d290612199565b60405180910390fd5b600260008190555060006004600083815260200190815260200160002090508060020160009054906101000a900473ffffffffffffffffffffffffffffffffffffffff1673ffffffffffffffffffffffffffffffffffffffff163373ffffffffffffffffffffffffffffffffffffffff161461158c576040517f08c379a000000000000000000000000000000000000000000000000000000000815260040161158390612139565b60405180910390fd5b8060040160009054906101000a900460ff16156115de576040517f08c379a00000000000000000000000000000000000000000000000000000000081526004016115d5906120d9565b60405180910390fd5b8060040160019054906101000a900460ff1615611630576040517f08c379a000000000000000000000000000000000000000000000000000000000815260040161162790612179565b60405180910390fd5b60018160040160016101000a81548160ff0219169083151502179055508060020160009054906101000a900473ffffffffffffffffffffffffffffffffffffffff1673ffffffffffffffffffffffffffffffffffffffff166108fc82600301549081150290604051600060405180830381858888f193505050501580156116bb573d6000803e3d6000fd5b508060020160009054906101000a900473ffffffffffffffffffffffffffffffffffffffff1673ffffffffffffffffffffffffffffffffffffffff167f5b166b4d0498ff8c4719999cb6154c5d197e6f020f9fbfcf9d347f84576cfab783836001015460405161172c929190612255565b60405180910390a250600160008190555050565b60026000541415611786576040517f08c379a000000000000000000000000000000000000000000000000000000000815260040161177d90612199565b60405180910390fd5b6002600081905550600081116117d1576040517f08c379a00000000000000000000000000000000000000000000000000000000081526004016117c890612059565b60405180910390fd5b600160008154809291906117e49061259c565b91905055508273ffffffffffffffffffffffffffffffffffffffff166323b872dd3330856040518463ffffffff1660e01b815260040161182693929190611fc0565b600060405180830381600087803b15801561184057600080fd5b505af1158015611854573d6000803e3d6000fd5b505050506040518060c0016040528060015481526020018473ffffffffffffffffffffffffffffffffffffffff1681526020018381526020018281526020013373ffffffffffffffffffffffffffffffffffffffff168152602001600015158152506003600060015481526020019081526020016000206000820151816000015560208201518160010160006101000a81548173ffffffffffffffffffffffffffffffffffffffff021916908373ffffffffffffffffffffffffffffffffffffffff160217905550604082015181600201556060820151816003015560808201518160040160006101000a81548173ffffffffffffffffffffffffffffffffffffffff021916908373ffffffffffffffffffffffffffffffffffffffff16021790555060a08201518160040160146101000a81548160ff0219169083151502179055509050503373ffffffffffffffffffffffffffffffffffffffff168373ffffffffffffffffffffffffffffffffffffffff167f655a0cf9c8db81512be9a76dc1c5ae5380b8816ce6ad659cd61b715e2999d59a60015485856040516119fd93929190612340565b60405180910390a36001600081905550505050565b600060056000848152602001908152602001600020805480602002602001604051908101604052809291908181526020018280548015611a7157602002820191906000526020600020905b815481526020019060010190808311611a5d575b5050505050905060005b8151811015611bc1576000828281518110611abf577f4e487b7100000000000000000000000000000000000000000000000000000000600052603260045260246000fd5b602002602001015190506000600460008381526020019081526020016000209050848214158015611aff57508060040160019054906101000a900460ff16155b8015611b1a57508060040160009054906101000a900460ff16155b15611bac5760018160040160016101000a81548160ff0219169083151502179055508060020160009054906101000a900473ffffffffffffffffffffffffffffffffffffffff1673ffffffffffffffffffffffffffffffffffffffff166108fc82600301549081150290604051600060405180830381858888f19350505050158015611baa573d6000803e3d6000fd5b505b50508080611bb99061259c565b915050611a7b565b50505050565b600081359050611bd6816128f3565b92915050565b600081359050611beb8161290a565b92915050565b600080600060608486031215611c0657600080fd5b6000611c1486828701611bc7565b9350506020611c2586828701611bdc565b9250506040611c3686828701611bdc565b9150509250925092565b600060208284031215611c5257600080fd5b6000611c6084828501611bdc565b91505092915050565b60008060408385031215611c7c57600080fd5b6000611c8a85828601611bdc565b9250506020611c9b85828601611bdc565b9150509250929050565b6000611cb18383611f50565b60208301905092915050565b611cc681612542565b82525050565b611cd5816124e8565b82525050565b611ce4816124d6565b82525050565b6000611cf582612387565b611cff818561239f565b9350611d0a83612377565b8060005b83811015611d3b578151611d228882611ca5565b9750611d2d83612392565b925050600181019050611d0e565b5085935050505092915050565b611d51816124fa565b82525050565b611d6081612554565b82525050565b6000611d736011836123b0565b9150611d7e82612643565b602082019050919050565b6000611d966025836123b0565b9150611da18261266c565b604082019050919050565b6000611db9601f836123b0565b9150611dc4826126bb565b602082019050919050565b6000611ddc6033836123b0565b9150611de7826126e4565b604082019050919050565b6000611dff6012836123b0565b9150611e0a82612733565b602082019050919050565b6000611e226013836123b0565b9150611e2d8261275c565b602082019050919050565b6000611e456016836123b0565b9150611e5082612785565b602082019050919050565b6000611e686018836123b0565b9150611e73826127ae565b602082019050919050565b6000611e8b601d836123b0565b9150611e96826127d7565b602082019050919050565b6000611eae6021836123b0565b9150611eb982612800565b604082019050919050565b6000611ed1601d836123b0565b9150611edc8261284f565b602082019050919050565b6000611ef46017836123b0565b9150611eff82612878565b602082019050919050565b6000611f17601f836123b0565b9150611f22826128a1565b602082019050919050565b6000611f3a6011836123b0565b9150611f45826128ca565b602082019050919050565b611f5981612538565b82525050565b611f6881612538565b82525050565b6000602082019050611f836000830184611ccc565b92915050565b6000606082019050611f9e6000830186611cdb565b611fab6020830185611cbd565b611fb86040830184611f5f565b949350505050565b6000606082019050611fd56000830186611cdb565b611fe26020830185611cdb565b611fef6040830184611f5f565b949350505050565b600060208201905081810360008301526120118184611cea565b905092915050565b6000602082019050818103600083015261203281611d66565b9050919050565b6000602082019050818103600083015261205281611d89565b9050919050565b6000602082019050818103600083015261207281611dac565b9050919050565b6000602082019050818103600083015261209281611dcf565b9050919050565b600060208201905081810360008301526120b281611df2565b9050919050565b600060208201905081810360008301526120d281611e15565b9050919050565b600060208201905081810360008301526120f281611e38565b9050919050565b6000602082019050818103600083015261211281611e5b565b9050919050565b6000602082019050818103600083015261213281611e7e565b9050919050565b6000602082019050818103600083015261215281611ea1565b9050919050565b6000602082019050818103600083015261217281611ec4565b9050919050565b6000602082019050818103600083015261219281611ee7565b9050919050565b600060208201905081810360008301526121b281611f0a565b9050919050565b600060208201905081810360008301526121d281611f2d565b9050919050565b60006020820190506121ee6000830184611f5f565b92915050565b600060c0820190506122096000830189611f5f565b6122166020830188611d57565b6122236040830187611f5f565b6122306060830186611f5f565b61223d6080830185611ccc565b61224a60a0830184611d48565b979650505050505050565b600060408201905061226a6000830185611f5f565b6122776020830184611f5f565b9392505050565b600060c0820190506122936000830189611f5f565b6122a06020830188611f5f565b6122ad6040830187611ccc565b6122ba6060830186611f5f565b6122c76080830185611d48565b6122d460a0830184611d48565b979650505050505050565b600060c0820190506122f46000830189611f5f565b6123016020830188611f5f565b61230e6040830187611cdb565b61231b6060830186611f5f565b6123286080830185611d48565b61233560a0830184611d48565b979650505050505050565b60006060820190506123556000830186611f5f565b6123626020830185611f5f565b61236f6040830184611f5f565b949350505050565b6000819050602082019050919050565b600081519050919050565b6000602082019050919050565b600082825260208201905092915050565b600082825260208201905092915050565b60006123cc82612538565b91506123d783612538565b9250827fffffffffffffffffffffffffffffffffffffffffffffffffffffffffffffffff0382111561240c5761240b6125e5565b5b828201905092915050565b600061242282612538565b915061242d83612538565b92508261243d5761243c612614565b5b828204905092915050565b600061245382612538565b915061245e83612538565b9250817fffffffffffffffffffffffffffffffffffffffffffffffffffffffffffffffff0483118215151615612497576124966125e5565b5b828202905092915050565b60006124ad82612538565b91506124b883612538565b9250828210156124cb576124ca6125e5565b5b828203905092915050565b60006124e182612518565b9050919050565b60006124f382612518565b9050919050565b60008115159050919050565b6000612511826124d6565b9050919050565b600073ffffffffffffffffffffffffffffffffffffffff82169050919050565b6000819050919050565b600061254d82612578565b9050919050565b600061255f82612566565b9050919050565b600061257182612518565b9050919050565b60006125838261258a565b9050919050565b600061259582612518565b9050919050565b60006125a782612538565b91507fffffffffffffffffffffffffffffffffffffffffffffffffffffffffffffffff8214156125da576125d96125e5565b5b600182019050919050565b7f4e487b7100000000000000000000000000000000000000000000000000000000600052601160045260246000fd5b7f4e487b7100000000000000000000000000000000000000000000000000000000600052601260045260246000fd5b7f6974656d20616c726561647920736f6c64000000000000000000000000000000600082015250565b7f4f66666572207072696365206d7573742062652067726561746572207468616e60008201527f207a65726f000000000000000000000000000000000000000000000000000000602082015250565b7f5072696365206d7573742062652067726561746572207468616e207a65726f00600082015250565b7f6e6f7420656e6f75676820657468657220746f20636f766572206974656d207060008201527f7269636520616e64206d61726b65742066656500000000000000000000000000602082015250565b7f6974656d20646f65736e27742065786973740000000000000000000000000000600082015250565b7f4f66666572207761732063616e63656c6c656400000000000000000000000000600082015250565b7f4f6666657220616c726561647920616363657074656400000000000000000000600082015250565b7f43616e6e6f742062757920796f7572206f776e206974656d0000000000000000600082015250565b7f43616e6e6f74206f66666572206f6e20796f7572206f776e206974656d000000600082015250565b7f4f6e6c792062757965722063616e2063616e63656c207468656972206f66666560008201527f7200000000000000000000000000000000000000000000000000000000000000602082015250565b7f4f6e6c792073656c6c65722063616e20616363657074206f6666657273000000600082015250565b7f4f6666657220616c72656164792063616e63656c6c6564000000000000000000600082015250565b7f5265656e7472616e637947756172643a207265656e7472616e742063616c6c00600082015250565b7f4974656d20616c726561647920736f6c64000000000000000000000000000000600082015250565b6128fc81612506565b811461290757600080fd5b50565b61291381612538565b811461291e57600080fd5b5056fea26469706673582212206929f02cc6fb536bc72bd22e39f198b276357c5cbb0276e550ee23f4c4d865cb64736f6c63430008040033",
  "linkReferences": {},
  "deployedLinkReferences": {}
}