{
  "_format": "hh-sol-artifact-1",
  "contractName": "Marketplace",
  "sourceName": "src/backend/contracts/Marketplace.sol",
  "abi": [
    {
      "inputs": [
        {
          "internalType": "uint256",
          "name": "_feePercent",
          "type": "uint256"
        }
      ],
      "stateMutability": "nonpayable",
      "type": "constructor"
    },
    {
      "anonymous": false,
      "inputs": [
        {
          "indexed": false,
          "internalType": "uint256",
          "name": "newFeePercent",
          "type": "uint256"
        }
      ],
      "name": "FeePercentUpdated",
      "type": "event"
    },
    {
      "anonymous": false,
      "inputs": [
        {
          "indexed": true,
          "internalType": "address",
          "name": "issuer",
          "type": "address"
        },
        {
          "indexed": false,
          "internalType": "string",
          "name": "name",
          "type": "string"
        }
      ],
      "name": "IssuerAdded",
      "type": "event"
    },
    {
      "anonymous": false,
      "inputs": [
        {
          "indexed": true,
          "internalType": "address",
          "name": "issuer",
          "type": "address"
        }
      ],
      "name": "IssuerRemoved",
      "type": "event"
    },
    {
      "anonymous": false,
      "inputs": [
        {
          "indexed": true,
          "internalType": "address",
          "name": "issuer",
          "type": "address"
        },
        {
          "indexed": false,
          "internalType": "string",
          "name": "name",
          "type": "string"
        },
        {
          "indexed": false,
          "internalType": "bool",
          "name": "isActive",
          "type": "bool"
        }
      ],
      "name": "IssuerUpdated",
      "type": "event"
    },
    {
      "anonymous": false,
      "inputs": [
        {
          "indexed": false,
          "internalType": "uint256",
          "name": "itemId",
          "type": "uint256"
        },
        {
          "indexed": true,
          "internalType": "address",
          "name": "issuer",
          "type": "address"
        }
      ],
      "name": "ItemCancelled",
      "type": "event"
    },
    {
      "anonymous": false,
      "inputs": [
        {
          "indexed": false,
          "internalType": "uint256",
          "name": "itemId",
          "type": "uint256"
        },
        {
          "indexed": true,
          "internalType": "address",
          "name": "nft",
          "type": "address"
        },
        {
          "indexed": false,
          "internalType": "uint256",
          "name": "tokenId",
          "type": "uint256"
        },
        {
          "indexed": false,
          "internalType": "uint256",
          "name": "price",
          "type": "uint256"
        },
        {
          "indexed": true,
          "internalType": "address",
          "name": "issuer",
          "type": "address"
        },
        {
          "indexed": false,
          "internalType": "enum Marketplace.ItemType",
          "name": "itemType",
          "type": "uint8"
        },
        {
          "indexed": false,
          "internalType": "uint256",
          "name": "expiryDate",
          "type": "uint256"
        }
      ],
      "name": "ItemCreated",
      "type": "event"
    },
    {
      "anonymous": false,
      "inputs": [
        {
          "indexed": false,
          "internalType": "uint256",
          "name": "itemId",
          "type": "uint256"
        },
        {
          "indexed": true,
          "internalType": "address",
          "name": "issuer",
          "type": "address"
        },
        {
          "indexed": true,
          "internalType": "address",
          "name": "owner",
          "type": "address"
        }
      ],
      "name": "ItemRedeemed",
      "type": "event"
    },
    {
      "anonymous": false,
      "inputs": [
        {
          "indexed": false,
          "internalType": "uint256",
          "name": "itemId",
          "type": "uint256"
        },
        {
          "indexed": true,
          "internalType": "address",
          "name": "nft",
          "type": "address"
        },
        {
          "indexed": false,
          "internalType": "uint256",
          "name": "tokenId",
          "type": "uint256"
        },
        {
          "indexed": false,
          "internalType": "uint256",
          "name": "price",
          "type": "uint256"
        },
        {
          "indexed": true,
          "internalType": "address",
          "name": "issuer",
          "type": "address"
        },
        {
          "indexed": true,
          "internalType": "address",
          "name": "buyer",
          "type": "address"
        },
        {
          "indexed": false,
          "internalType": "bool",
          "name": "isResale",
          "type": "bool"
        }
      ],
      "name": "ItemSold",
      "type": "event"
    },
    {
      "anonymous": false,
      "inputs": [
        {
          "indexed": false,
          "internalType": "bool",
          "name": "isPaused",
          "type": "bool"
        }
      ],
      "name": "MarketplacePaused",
      "type": "event"
    },
    {
      "anonymous": false,
      "inputs": [
        {
          "indexed": false,
          "internalType": "uint256",
          "name": "offerId",
          "type": "uint256"
        },
        {
          "indexed": false,
          "internalType": "uint256",
          "name": "itemId",
          "type": "uint256"
        },
        {
          "indexed": true,
          "internalType": "address",
          "name": "seller",
          "type": "address"
        },
        {
          "indexed": true,
          "internalType": "address",
          "name": "buyer",
          "type": "address"
        },
        {
          "indexed": false,
          "internalType": "uint256",
          "name": "price",
          "type": "uint256"
        }
      ],
      "name": "OfferAccepted",
      "type": "event"
    },
    {
      "anonymous": false,
      "inputs": [
        {
          "indexed": false,
          "internalType": "uint256",
          "name": "offerId",
          "type": "uint256"
        },
        {
          "indexed": false,
          "internalType": "uint256",
          "name": "itemId",
          "type": "uint256"
        },
        {
          "indexed": true,
          "internalType": "address",
          "name": "buyer",
          "type": "address"
        }
      ],
      "name": "OfferCancelled",
      "type": "event"
    },
    {
      "anonymous": false,
      "inputs": [
        {
          "indexed": false,
          "internalType": "uint256",
          "name": "offerId",
          "type": "uint256"
        },
        {
          "indexed": false,
          "internalType": "uint256",
          "name": "itemId",
          "type": "uint256"
        },
        {
          "indexed": true,
          "internalType": "address",
          "name": "buyer",
          "type": "address"
        },
        {
          "indexed": false,
          "internalType": "uint256",
          "name": "price",
          "type": "uint256"
        }
      ],
      "name": "OfferMade",
      "type": "event"
    },
    {
      "anonymous": false,
      "inputs": [
        {
          "indexed": true,
          "internalType": "bytes32",
          "name": "role",
          "type": "bytes32"
        },
        {
          "indexed": true,
          "internalType": "bytes32",
          "name": "previousAdminRole",
          "type": "bytes32"
        },
        {
          "indexed": true,
          "internalType": "bytes32",
          "name": "newAdminRole",
          "type": "bytes32"
        }
      ],
      "name": "RoleAdminChanged",
      "type": "event"
    },
    {
      "anonymous": false,
      "inputs": [
        {
          "indexed": true,
          "internalType": "bytes32",
          "name": "role",
          "type": "bytes32"
        },
        {
          "indexed": true,
          "internalType": "address",
          "name": "account",
          "type": "address"
        },
        {
          "indexed": true,
          "internalType": "address",
          "name": "sender",
          "type": "address"
        }
      ],
      "name": "RoleGranted",
      "type": "event"
    },
    {
      "anonymous": false,
      "inputs": [
        {
          "indexed": true,
          "internalType": "bytes32",
          "name": "role",
          "type": "bytes32"
        },
        {
          "indexed": true,
          "internalType": "address",
          "name": "account",
          "type": "address"
        },
        {
          "indexed": true,
          "internalType": "address",
          "name": "sender",
          "type": "address"
        }
      ],
      "name": "RoleRevoked",
      "type": "event"
    },
    {
      "inputs": [],
      "name": "ADMIN_ROLE",
      "outputs": [
        {
          "internalType": "bytes32",
          "name": "",
          "type": "bytes32"
        }
      ],
      "stateMutability": "view",
      "type": "function"
    },
    {
      "inputs": [],
      "name": "DEFAULT_ADMIN_ROLE",
      "outputs": [
        {
          "internalType": "bytes32",
          "name": "",
          "type": "bytes32"
        }
      ],
      "stateMutability": "view",
      "type": "function"
    },
    {
      "inputs": [],
      "name": "ISSUER_ROLE",
      "outputs": [
        {
          "internalType": "bytes32",
          "name": "",
          "type": "bytes32"
        }
      ],
      "stateMutability": "view",
      "type": "function"
    },
    {
      "inputs": [
        {
          "internalType": "uint256",
          "name": "_offerId",
          "type": "uint256"
        }
      ],
      "name": "acceptOffer",
      "outputs": [],
      "stateMutability": "nonpayable",
      "type": "function"
    },
    {
      "inputs": [
        {
          "internalType": "address",
          "name": "_issuer",
          "type": "address"
        },
        {
          "internalType": "string",
          "name": "_name",
          "type": "string"
        },
        {
          "internalType": "string",
          "name": "_description",
          "type": "string"
        }
      ],
      "name": "addIssuer",
      "outputs": [],
      "stateMutability": "nonpayable",
      "type": "function"
    },
    {
      "inputs": [
        {
          "internalType": "uint256",
          "name": "_itemId",
          "type": "uint256"
        }
      ],
      "name": "cancelItem",
      "outputs": [],
      "stateMutability": "nonpayable",
      "type": "function"
    },
    {
      "inputs": [
        {
          "internalType": "uint256",
          "name": "_offerId",
          "type": "uint256"
        }
      ],
      "name": "cancelOffer",
      "outputs": [],
      "stateMutability": "nonpayable",
      "type": "function"
    },
    {
      "inputs": [
        {
          "internalType": "contract IERC721",
          "name": "_nft",
          "type": "address"
        },
        {
          "internalType": "uint256",
          "name": "_tokenId",
          "type": "uint256"
        },
        {
          "internalType": "uint256",
          "name": "_price",
          "type": "uint256"
        },
        {
          "internalType": "enum Marketplace.ItemType",
          "name": "_itemType",
          "type": "uint8"
        },
        {
          "internalType": "uint256",
          "name": "_expiryDate",
          "type": "uint256"
        },
        {
          "internalType": "uint256",
          "name": "_maxResales",
          "type": "uint256"
        }
      ],
      "name": "createItem",
      "outputs": [],
      "stateMutability": "nonpayable",
      "type": "function"
    },
    {
      "inputs": [],
      "name": "feeAccount",
      "outputs": [
        {
          "internalType": "address payable",
          "name": "",
          "type": "address"
        }
      ],
      "stateMutability": "view",
      "type": "function"
    },
    {
      "inputs": [],
      "name": "feePercent",
      "outputs": [
        {
          "internalType": "uint256",
          "name": "",
          "type": "uint256"
        }
      ],
      "stateMutability": "view",
      "type": "function"
    },
    {
      "inputs": [
        {
          "internalType": "address",
          "name": "_issuer",
          "type": "address"
        }
      ],
      "name": "getIssuerInfo",
      "outputs": [
        {
          "internalType": "string",
          "name": "name",
          "type": "string"
        },
        {
          "internalType": "string",
          "name": "description",
          "type": "string"
        },
        {
          "internalType": "bool",
          "name": "isActive",
          "type": "bool"
        },
        {
          "internalType": "uint256",
          "name": "totalItemsCreated",
          "type": "uint256"
        },
        {
          "internalType": "uint256",
          "name": "totalSales",
          "type": "uint256"
        }
      ],
      "stateMutability": "view",
      "type": "function"
    },
    {
      "inputs": [
        {
          "internalType": "uint256",
          "name": "_itemId",
          "type": "uint256"
        }
      ],
      "name": "getItemOffers",
      "outputs": [
        {
          "internalType": "uint256[]",
          "name": "",
          "type": "uint256[]"
        }
      ],
      "stateMutability": "view",
      "type": "function"
    },
    {
      "inputs": [
        {
          "internalType": "uint256",
          "name": "_offerId",
          "type": "uint256"
        }
      ],
      "name": "getOffer",
      "outputs": [
        {
          "internalType": "uint256",
          "name": "offerId",
          "type": "uint256"
        },
        {
          "internalType": "uint256",
          "name": "itemId",
          "type": "uint256"
        },
        {
          "internalType": "address",
          "name": "buyer",
          "type": "address"
        },
        {
          "internalType": "uint256",
          "name": "price",
          "type": "uint256"
        },
        {
          "internalType": "bool",
          "name": "accepted",
          "type": "bool"
        },
        {
          "internalType": "bool",
          "name": "cancelled",
          "type": "bool"
        }
      ],
      "stateMutability": "view",
      "type": "function"
    },
    {
      "inputs": [
        {
          "internalType": "bytes32",
          "name": "role",
          "type": "bytes32"
        }
      ],
      "name": "getRoleAdmin",
      "outputs": [
        {
          "internalType": "bytes32",
          "name": "",
          "type": "bytes32"
        }
      ],
      "stateMutability": "view",
      "type": "function"
    },
    {
      "inputs": [
        {
          "internalType": "uint256",
          "name": "_itemId",
          "type": "uint256"
        }
      ],
      "name": "getTotalPrice",
      "outputs": [
        {
          "internalType": "uint256",
          "name": "",
          "type": "uint256"
        }
      ],
      "stateMutability": "view",
      "type": "function"
    },
    {
      "inputs": [
        {
          "internalType": "bytes32",
          "name": "role",
          "type": "bytes32"
        },
        {
          "internalType": "address",
          "name": "account",
          "type": "address"
        }
      ],
      "name": "grantRole",
      "outputs": [],
      "stateMutability": "nonpayable",
      "type": "function"
    },
    {
      "inputs": [
        {
          "internalType": "bytes32",
          "name": "role",
          "type": "bytes32"
        },
        {
          "internalType": "address",
          "name": "account",
          "type": "address"
        }
      ],
      "name": "hasRole",
      "outputs": [
        {
          "internalType": "bool",
          "name": "",
          "type": "bool"
        }
      ],
      "stateMutability": "view",
      "type": "function"
    },
    {
      "inputs": [
        {
          "internalType": "address",
          "name": "_address",
          "type": "address"
        }
      ],
      "name": "isAuthorizedIssuer",
      "outputs": [
        {
          "internalType": "bool",
          "name": "",
          "type": "bool"
        }
      ],
      "stateMutability": "view",
      "type": "function"
    },
    {
      "inputs": [
        {
          "internalType": "address",
          "name": "",
          "type": "address"
        }
      ],
      "name": "issuers",
      "outputs": [
        {
          "internalType": "string",
          "name": "name",
          "type": "string"
        },
        {
          "internalType": "string",
          "name": "description",
          "type": "string"
        },
        {
          "internalType": "bool",
          "name": "isActive",
          "type": "bool"
        },
        {
          "internalType": "uint256",
          "name": "totalItemsCreated",
          "type": "uint256"
        },
        {
          "internalType": "uint256",
          "name": "totalSales",
          "type": "uint256"
        }
      ],
      "stateMutability": "view",
      "type": "function"
    },
    {
      "inputs": [],
      "name": "itemCount",
      "outputs": [
        {
          "internalType": "uint256",
          "name": "",
          "type": "uint256"
        }
      ],
      "stateMutability": "view",
      "type": "function"
    },
    {
      "inputs": [
        {
          "internalType": "uint256",
          "name": "",
          "type": "uint256"
        },
        {
          "internalType": "uint256",
          "name": "",
          "type": "uint256"
        }
      ],
      "name": "itemOffers",
      "outputs": [
        {
          "internalType": "uint256",
          "name": "",
          "type": "uint256"
        }
      ],
      "stateMutability": "view",
      "type": "function"
    },
    {
      "inputs": [
        {
          "internalType": "uint256",
          "name": "",
          "type": "uint256"
        }
      ],
      "name": "items",
      "outputs": [
        {
          "internalType": "uint256",
          "name": "itemId",
          "type": "uint256"
        },
        {
          "internalType": "contract IERC721",
          "name": "nft",
          "type": "address"
        },
        {
          "internalType": "uint256",
          "name": "tokenId",
          "type": "uint256"
        },
        {
          "internalType": "uint256",
          "name": "price",
          "type": "uint256"
        },
        {
          "internalType": "address payable",
          "name": "issuer",
          "type": "address"
        },
        {
          "internalType": "address payable",
          "name": "currentOwner",
          "type": "address"
        },
        {
          "internalType": "bool",
          "name": "sold",
          "type": "bool"
        },
        {
          "internalType": "bool",
          "name": "cancelled",
          "type": "bool"
        },
        {
          "internalType": "bool",
          "name": "isUsed",
          "type": "bool"
        },
        {
          "internalType": "enum Marketplace.ItemType",
          "name": "itemType",
          "type": "uint8"
        },
        {
          "internalType": "uint256",
          "name": "expiryDate",
          "type": "uint256"
        },
        {
          "internalType": "uint256",
          "name": "maxResales",
          "type": "uint256"
        },
        {
          "internalType": "uint256",
          "name": "resaleCount",
          "type": "uint256"
        }
      ],
      "stateMutability": "view",
      "type": "function"
    },
    {
      "inputs": [
        {
          "internalType": "uint256",
          "name": "_itemId",
          "type": "uint256"
        }
      ],
      "name": "makeOffer",
      "outputs": [],
      "stateMutability": "payable",
      "type": "function"
    },
    {
      "inputs": [],
      "name": "offerCount",
      "outputs": [
        {
          "internalType": "uint256",
          "name": "",
          "type": "uint256"
        }
      ],
      "stateMutability": "view",
      "type": "function"
    },
    {
      "inputs": [
        {
          "internalType": "uint256",
          "name": "",
          "type": "uint256"
        }
      ],
      "name": "offers",
      "outputs": [
        {
          "internalType": "uint256",
          "name": "offerId",
          "type": "uint256"
        },
        {
          "internalType": "uint256",
          "name": "itemId",
          "type": "uint256"
        },
        {
          "internalType": "address payable",
          "name": "buyer",
          "type": "address"
        },
        {
          "internalType": "uint256",
          "name": "price",
          "type": "uint256"
        },
        {
          "internalType": "bool",
          "name": "accepted",
          "type": "bool"
        },
        {
          "internalType": "bool",
          "name": "cancelled",
          "type": "bool"
        }
      ],
      "stateMutability": "view",
      "type": "function"
    },
    {
      "inputs": [],
      "name": "paused",
      "outputs": [
        {
          "internalType": "bool",
          "name": "",
          "type": "bool"
        }
      ],
      "stateMutability": "view",
      "type": "function"
    },
    {
      "inputs": [
        {
          "internalType": "uint256",
          "name": "_itemId",
          "type": "uint256"
        }
      ],
      "name": "purchaseItem",
      "outputs": [],
      "stateMutability": "payable",
      "type": "function"
    },
    {
      "inputs": [
        {
          "internalType": "uint256",
          "name": "_itemId",
          "type": "uint256"
        }
      ],
      "name": "redeemItem",
      "outputs": [],
      "stateMutability": "nonpayable",
      "type": "function"
    },
    {
      "inputs": [
        {
          "internalType": "address",
          "name": "_issuer",
          "type": "address"
        }
      ],
      "name": "removeIssuer",
      "outputs": [],
      "stateMutability": "nonpayable",
      "type": "function"
    },
    {
      "inputs": [
        {
          "internalType": "bytes32",
          "name": "role",
          "type": "bytes32"
        },
        {
          "internalType": "address",
          "name": "account",
          "type": "address"
        }
      ],
      "name": "renounceRole",
      "outputs": [],
      "stateMutability": "nonpayable",
      "type": "function"
    },
    {
      "inputs": [
        {
          "internalType": "bytes32",
          "name": "role",
          "type": "bytes32"
        },
        {
          "internalType": "address",
          "name": "account",
          "type": "address"
        }
      ],
      "name": "revokeRole",
      "outputs": [],
      "stateMutability": "nonpayable",
      "type": "function"
    },
    {
      "inputs": [
        {
          "internalType": "uint256",
          "name": "_feePercent",
          "type": "uint256"
        }
      ],
      "name": "setFeePercent",
      "outputs": [],
      "stateMutability": "nonpayable",
      "type": "function"
    },
    {
      "inputs": [
        {
          "internalType": "bool",
          "name": "_paused",
          "type": "bool"
        }
      ],
      "name": "setPaused",
      "outputs": [],
      "stateMutability": "nonpayable",
      "type": "function"
    },
    {
      "inputs": [
        {
          "internalType": "bytes4",
          "name": "interfaceId",
          "type": "bytes4"
        }
      ],
      "name": "supportsInterface",
      "outputs": [
        {
          "internalType": "bool",
          "name": "",
          "type": "bool"
        }
      ],
      "stateMutability": "view",
      "type": "function"
    },
    {
      "inputs": [
        {
          "internalType": "address",
          "name": "_issuer",
          "type": "address"
        },
        {
          "internalType": "string",
          "name": "_name",
          "type": "string"
        },
        {
          "internalType": "string",
          "name": "_description",
          "type": "string"
        },
        {
          "internalType": "bool",
          "name": "_isActive",
          "type": "bool"
        }
      ],
      "name": "updateIssuer",
      "outputs": [],
      "stateMutability": "nonpayable",
      "type": "function"
    }
  ],
  "bytecode": "0x60a06040523480156200001157600080fd5b50604051620039ec380380620039ec83398101604081905262000034916200011b565b6001600090815533606081901b60805260028390556005805460ff191690556200005f919062000092565b6200008b7fa49807205ce4d355092ef5a8a18f56e8913cf4a201fbe287825b095693c217753362000092565b5062000134565b60008281526001602090815260408083206001600160a01b038516845290915290205460ff16620001175760008281526001602081815260408084206001600160a01b0386168086529252808420805460ff19169093179092559051339285917f2f8788117e7eff1d82e926ec794901d17c78024a50270940304540a733656f0d9190a45b5050565b6000602082840312156200012d578081fd5b5051919050565b60805160601c61388b62000161600039600081816104fd0152818161215c01526126fd015261388b6000f3fe6080604052600436106102045760003560e01c806365e17c9d1161011857806391d14854116100a0578063c815729d1161006f578063c815729d14610766578063ca7dd37514610786578063d38ea5bf146107a6578063d547741f146107b9578063ef706adf146107d957600080fd5b806391d14854146106675780639a2f647414610687578063a217fddf1461069a578063bfb231d2146106af57600080fd5b80637ce3489b116100e75780637ce3489b1461058f5780637fd6f15c146105af57806382aefa24146105c55780638a72ea6a146105e757806390df01741461064757600080fd5b806365e17c9d146104eb57806369ae5883146105375780636bfb0d011461055757806375b238fc1461056d57600080fd5b806332e554691161019b5780634579268a1161016a5780634579268a146103d357806347bc70931461047157806351563f8e146104915780635c975abb146104b15780635e9aab70146104cb57600080fd5b806332e554691461033557806336568abe1461035557806338a7543e1461037557806343b555dd146103a657600080fd5b80631c26dc23116101d75780631c26dc23146102a4578063248a9ca3146102c45780632f2ff15d146102f557806331ba19661461031557600080fd5b806301ffc9a7146102095780631115c24d1461023e57806316c38b3c146102625780631aa76b4314610284575b600080fd5b34801561021557600080fd5b506102296102243660046132e1565b6107f9565b60405190151581526020015b60405180910390f35b34801561024a57600080fd5b5061025460045481565b604051908152602001610235565b34801561026e57600080fd5b5061028261027d366004613280565b610830565b005b34801561029057600080fd5b5061028261029f366004613189565b610892565b3480156102b057600080fd5b506102826102bf36600461329a565b610a54565b3480156102d057600080fd5b506102546102df36600461329a565b6000908152600160208190526040909120015490565b34801561030157600080fd5b506102826103103660046132b2565b610c9d565b34801561032157600080fd5b5061022961033036600461316d565b610cc9565b34801561034157600080fd5b50610282610350366004613309565b610d0c565b34801561036157600080fd5b506102826103703660046132b2565b61116c565b34801561038157600080fd5b5061039561039036600461316d565b6111ea565b6040516102359594939291906134ea565b3480156103b257600080fd5b506103c66103c136600461329a565b61132e565b604051610235919061346f565b3480156103df57600080fd5b506104346103ee36600461329a565b60009081526007602052604090208054600182015460028301546003840154600490940154929491936001600160a01b0390911692909160ff8083169261010090041690565b6040805196875260208701959095526001600160a01b039093169385019390935260608401529015156080830152151560a082015260c001610235565b34801561047d57600080fd5b5061028261048c36600461316d565b611390565b34801561049d57600080fd5b506102826104ac36600461329a565b611462565b3480156104bd57600080fd5b506005546102299060ff1681565b3480156104d757600080fd5b506103956104e636600461316d565b61174b565b3480156104f757600080fd5b5061051f7f000000000000000000000000000000000000000000000000000000000000000081565b6040516001600160a01b039091168152602001610235565b34801561054357600080fd5b50610254610552366004613367565b6118b8565b34801561056357600080fd5b5061025460035481565b34801561057957600080fd5b5061025460008051602061383683398151915281565b34801561059b57600080fd5b506102826105aa36600461329a565b6118e9565b3480156105bb57600080fd5b5061025460025481565b3480156105d157600080fd5b5061025460008051602061381683398151915281565b3480156105f357600080fd5b5061043461060236600461329a565b60076020526000908152604090208054600182015460028301546003840154600490940154929391926001600160a01b03909116919060ff8082169161010090041686565b34801561065357600080fd5b506102826106623660046131fc565b611977565b34801561067357600080fd5b506102296106823660046132b2565b611aa6565b61028261069536600461329a565b611ad1565b3480156106a657600080fd5b50610254600081565b3480156106bb57600080fd5b5061074d6106ca36600461329a565b600660208190526000918252604090912080546001820154600283015460038401546004850154600586015496860154600787015460089097015495976001600160a01b039586169794969395928316949281169360ff600160a01b8304811694600160a81b8404821694600160b01b8504831694600160b81b9004909216928d565b6040516102359d9c9b9a99989796959493929190613615565b34801561077257600080fd5b5061028261078136600461329a565b611e6f565b34801561079257600080fd5b506102546107a136600461329a565b612385565b6102826107b436600461329a565b6123be565b3480156107c557600080fd5b506102826107d43660046132b2565b612884565b3480156107e557600080fd5b506102826107f436600461329a565b6128ab565b60006001600160e01b03198216637965db0b60e01b148061082a57506301ffc9a760e01b6001600160e01b03198316145b92915050565b6000805160206138368339815191526108498133612a99565b6005805460ff19168315159081179091556040519081527f2d8cb32b79ced32c38fb4a61d8482c40627602feb2cc34b50d9b55eea376d88c906020015b60405180910390a15050565b6000805160206138368339815191526108ab8133612a99565b6001600160a01b0384166108ff5760405162461bcd60e51b8152602060048201526016602482015275496e76616c696420697373756572206164647265737360501b60448201526064015b60405180910390fd5b61091760008051602061381683398151915285611aa6565b156109585760405162461bcd60e51b815260206004820152601160248201527020b63932b0b23c9030b71034b9b9bab2b960791b60448201526064016108f6565b61097060008051602061381683398151915285612afd565b6040805160a0810182528481526020808201859052600182840152600060608301819052608083018190526001600160a01b0388168152600982529290922081518051929391926109c49284920190613038565b5060208281015180516109dd9260018501920190613038565b5060408281015160028301805460ff191691151591909117905560608301516003830155608090920151600490910155516001600160a01b038516907fbffc9e6add894cdc9f3243f85aaf5e65d6f6284f63658ea53ea9dd241e4276d890610a469086906134b3565b60405180910390a250505050565b60026000541415610a775760405162461bcd60e51b81526004016108f6906135b3565b6002600055808015801590610a8e57506003548111155b610aaa5760405162461bcd60e51b81526004016108f690613587565b600082815260066020526040902060048101546001600160a01b0316331480610ae65750610ae660008051602061383683398151915233611aa6565b610b325760405162461bcd60e51b815260206004820152601e60248201527f43616c6c65722063616e6e6f742072656465656d2074686973206974656d000060448201526064016108f6565b6005810154600160b01b900460ff1615610b8e5760405162461bcd60e51b815260206004820152601a60248201527f4974656d20616c726561647920757365642f72656465656d656400000000000060448201526064016108f6565b6005810154600160a81b900460ff1615610bde5760405162461bcd60e51b8152602060048201526011602482015270125d195b481a5cc818d85b98d95b1b1959607a1b60448201526064016108f6565b600681015415610c3b5780600601544210610c3b5760405162461bcd60e51b815260206004820152601b60248201527f4974656d20657870697265642c2063616e6e6f742072656465656d000000000060448201526064016108f6565b600581018054600160b01b60ff60b01b198216179091556040518481526001600160a01b039091169033907f6297df5e5500091751d031e739850304e0aa60eb33b99045446eea1889a16c2c9060200160405180910390a35050600160005550565b60008281526001602081905260409091200154610cba8133612a99565b610cc48383612afd565b505050565b6000610ce360008051602061381683398151915283611aa6565b801561082a5750506001600160a01b031660009081526009602052604090206002015460ff1690565b610d2460008051602061381683398151915233611aa6565b610d6c5760405162461bcd60e51b815260206004820152601960248201527826bab9ba1031329030baba3437b934bd32b21034b9b9bab2b960391b60448201526064016108f6565b3360009081526009602052604090206002015460ff16610dce5760405162461bcd60e51b815260206004820152601a60248201527f497373756572206163636f756e7420697320696e61637469766500000000000060448201526064016108f6565b60055460ff1615610df15760405162461bcd60e51b81526004016108f69061352d565b60026000541415610e145760405162461bcd60e51b81526004016108f6906135b3565b600260005583610e665760405162461bcd60e51b815260206004820152601f60248201527f5072696365206d7573742062652067726561746572207468616e207a65726f0060448201526064016108f6565b811580610e7257504282115b610eb45760405162461bcd60e51b8152602060048201526013602482015272496e76616c696420657870697279206461746560681b60448201526064016108f6565b60038054906000610ec4836137b6565b90915550506040516323b872dd60e01b81526001600160a01b038716906323b872dd90610ef990339030908a9060040161344b565b600060405180830381600087803b158015610f1357600080fd5b505af1158015610f27573d6000803e3d6000fd5b5050604080516101a08101825260035481526001600160a01b038a16602082015290810188905260608101879052336080820181905260a0820152600060c0820181905260e082018190526101008201529150506101208101846002811115610fa057634e487b7160e01b600052602160045260246000fd5b81526020808201859052604080830185905260006060938401819052600380548252600684529082902085518155928501516001840180546001600160a01b039283166001600160a01b0319918216179091559286015160028086019190915594860151918401919091556080850151600484018054918316919093161790915560a084015160058301805460c087015160e08801516101008901511515600160b01b0260ff60b01b19911515600160a81b029190911661ffff60a81b19921515600160a01b026001600160a81b0319909416959096169490941791909117169290921717808255610120850151929360ff60b81b1990911690600160b81b9084908111156110bf57634e487b7160e01b600052602160045260246000fd5b02179055506101408201516006820155610160820151600782015561018090910151600890910155336000908152600960205260408120600301805491611105836137b6565b9190505550336001600160a01b0316866001600160a01b03167f39e4317938dd1b6ea7cecae5ca0eb86d4addd91b87ce5c9a45c12c00294bb05560035488888888604051611157959493929190613698565b60405180910390a35050600160005550505050565b6001600160a01b03811633146111dc5760405162461bcd60e51b815260206004820152602f60248201527f416363657373436f6e74726f6c3a2063616e206f6e6c792072656e6f756e636560448201526e103937b632b9903337b91039b2b63360891b60648201526084016108f6565b6111e68282612b68565b5050565b6009602052600090815260409020805481906112059061377b565b80601f01602080910402602001604051908101604052809291908181526020018280546112319061377b565b801561127e5780601f106112535761010080835404028352916020019161127e565b820191906000526020600020905b81548152906001019060200180831161126157829003601f168201915b5050505050908060010180546112939061377b565b80601f01602080910402602001604051908101604052809291908181526020018280546112bf9061377b565b801561130c5780601f106112e15761010080835404028352916020019161130c565b820191906000526020600020905b8154815290600101906020018083116112ef57829003601f168201915b5050505060028301546003840154600490940154929360ff9091169290915085565b60008181526008602090815260409182902080548351818402810184019094528084526060939283018282801561138457602002820191906000526020600020905b815481526020019060010190808311611370575b50505050509050919050565b6000805160206138368339815191526113a98133612a99565b6113c160008051602061381683398151915283611aa6565b6113fd5760405162461bcd60e51b815260206004820152600d60248201526c2737ba1030b71034b9b9bab2b960991b60448201526064016108f6565b61141560008051602061381683398151915283612b68565b6001600160a01b038216600081815260096020526040808220600201805460ff19169055517faf66545c919a3be306ee446d8f42a9558b5b022620df880517bc9593ec0f2d529190a25050565b61147a60008051602061381683398151915233611aa6565b6114c25760405162461bcd60e51b815260206004820152601960248201527826bab9ba1031329030baba3437b934bd32b21034b9b9bab2b960391b60448201526064016108f6565b3360009081526009602052604090206002015460ff166115245760405162461bcd60e51b815260206004820152601a60248201527f497373756572206163636f756e7420697320696e61637469766500000000000060448201526064016108f6565b8060008111801561153757506003548111155b6115535760405162461bcd60e51b81526004016108f690613587565b600260005414156115765760405162461bcd60e51b81526004016108f6906135b3565b6002600090815582815260066020526040902060048101546001600160a01b031633146115d65760405162461bcd60e51b815260206004820152600e60248201526d2737ba103a34329034b9b9bab2b960911b60448201526064016108f6565b6005810154600160a01b900460ff16156116025760405162461bcd60e51b81526004016108f6906135ea565b6005810154600160a81b900460ff16156116575760405162461bcd60e51b8152602060048201526016602482015275125d195b48185b1c9958591e4818d85b98d95b1b195960521b60448201526064016108f6565b6005810154600160b01b900460ff16156116835760405162461bcd60e51b81526004016108f69061355c565b60058101805460ff60a81b1916600160a81b179055600181015460028201546040516323b872dd60e01b81526001600160a01b03909216916323b872dd916116d1913091339160040161344b565b600060405180830381600087803b1580156116eb57600080fd5b505af11580156116ff573d6000803e3d6000fd5b5050505061170c83612bcf565b60405183815233907ff69c7ea3f71dad86e17ba97a88b7e8f1708c0946bd98c7584e9942f60da8728e9060200160405180910390a25050600160005550565b6001600160a01b03811660009081526009602052604081206002810154600382015460048301548354606095869590948594859492938493600185019360ff16929185906117989061377b565b80601f01602080910402602001604051908101604052809291908181526020018280546117c49061377b565b80156118115780601f106117e657610100808354040283529160200191611811565b820191906000526020600020905b8154815290600101906020018083116117f457829003601f168201915b505050505094508380546118249061377b565b80601f01602080910402602001604051908101604052809291908181526020018280546118509061377b565b801561189d5780601f106118725761010080835404028352916020019161189d565b820191906000526020600020905b81548152906001019060200180831161188057829003601f168201915b50505050509350955095509550955095505091939590929450565b600860205281600052604060002081815481106118d457600080fd5b90600052602060002001600091509150505481565b6000805160206138368339815191526119028133612a99565b600a8211156119425760405162461bcd60e51b815260206004820152600c60248201526b08ccaca40e8dede40d0d2ced60a31b60448201526064016108f6565b60028290556040518281527f64d1887078a96d281ed60dd69ba75bfb6b5cd2cb4c2d2538b2eb7816a4c646ea90602001610886565b6000805160206138368339815191526119908133612a99565b6119a860008051602061381683398151915286611aa6565b6119e45760405162461bcd60e51b815260206004820152600d60248201526c2737ba1030b71034b9b9bab2b960991b60448201526064016108f6565b6001600160a01b03851660009081526009602090815260409091208551611a0d92870190613038565b506001600160a01b03851660009081526009602090815260409091208451611a3d92600190920191860190613038565b506001600160a01b03851660008181526009602052604090819020600201805460ff1916851515179055517fc9968e7dba0d8507fbdfefc771402d6a5915a2b9d68df388833035245f7081c690611a9790879086906134c6565b60405180910390a25050505050565b60009182526001602090815260408084206001600160a01b0393909316845291905290205460ff1690565b60055460ff1615611af45760405162461bcd60e51b81526004016108f69061352d565b80600081118015611b0757506003548111155b611b235760405162461bcd60e51b81526004016108f690613587565b6000828152600660208190526040909120908101548391901580611b4a5750806006015442105b611b895760405162461bcd60e51b815260206004820152601060248201526f125d195b481a185cc8195e1c1a5c995960821b60448201526064016108f6565b60026000541415611bac5760405162461bcd60e51b81526004016108f6906135b3565b600260009081558481526006602052604090208415801590611bd057506003548511155b611c115760405162461bcd60e51b81526020600482015260126024820152711a5d195b48191bd95cdb89dd08195e1a5cdd60721b60448201526064016108f6565b6005810154600160a01b900460ff1615611c615760405162461bcd60e51b81526020600482015260116024820152701a5d195b48185b1c9958591e481cdbdb19607a1b60448201526064016108f6565b6005810154600160b01b900460ff1615611c8d5760405162461bcd60e51b81526004016108f69061355c565b60058101546001600160a01b0316331415611cea5760405162461bcd60e51b815260206004820152601d60248201527f43616e6e6f74206f66666572206f6e20796f7572206f776e206974656d00000060448201526064016108f6565b60003411611d485760405162461bcd60e51b815260206004820152602560248201527f4f66666572207072696365206d7573742062652067726561746572207468616e604482015264207a65726f60d81b60648201526084016108f6565b60048054906000611d58836137b6565b90915550506040805160c0810182526004805480835260208084018a815233858701818152346060808901828152600060808b0181815260a08c01828152998252600789528c82209b518c5596516001808d0191909155945160028c0180546001600160a01b039092166001600160a01b0319909216919091179055905160038b015594519888018054975115156101000261ff00199a15159a909a1661ffff1990981697909717989098179095558c835260088452878320865481549283018255908452928490200191909155925485519081529081018a905293840152917f3b2a24777f28e9c99a6c31e1939554147f5cac067f06527c26a7619c1c6df543910160405180910390a250506001600055505050565b60026000541415611e925760405162461bcd60e51b81526004016108f6906135b3565b6002600090815581815260076020908152604080832060018101548452600690925290912060058101546001600160a01b03163314611f135760405162461bcd60e51b815260206004820152601d60248201527f4f6e6c792073656c6c65722063616e20616363657074206f666665727300000060448201526064016108f6565b6005810154600160b01b900460ff1615611f3f5760405162461bcd60e51b81526004016108f69061355c565b6005810154600160a01b900460ff1615611f6b5760405162461bcd60e51b81526004016108f6906135ea565b600482015460ff1615611fb95760405162461bcd60e51b815260206004820152601660248201527513d999995c88185b1c9958591e481858d8d95c1d195960521b60448201526064016108f6565b6004820154610100900460ff16156120095760405162461bcd60e51b815260206004820152601360248201527213d999995c881dd85cc818d85b98d95b1b1959606a1b60448201526064016108f6565b6006810154158061201d5750806006015442105b6120585760405162461bcd60e51b815260206004820152600c60248201526b125d195b48195e1c1a5c995960a21b60448201526064016108f6565b600481015460058201546001600160a01b039081169116148015906120dd5781600701548260080154106120c55760405162461bcd60e51b815260206004820152601460248201527314995cd85b19481b1a5b5a5d081c995858da195960621b60448201526064016108f6565b6008820180549060006120d7836137b6565b91905055505b6000606460025485600301546120f39190613702565b6120fd91906136e2565b905060008185600301546121119190613721565b60058501546040519192506001600160a01b03169082156108fc029083906000818181858888f1935050505015801561214e573d6000803e3d6000fd5b506040516001600160a01b037f0000000000000000000000000000000000000000000000000000000000000000169083156108fc029084906000818181858888f193505050501580156121a5573d6000803e3d6000fd5b50600485018054600160ff19909116179055600584018054600160a01b60ff60a01b1982168117835560028801546001600160a01b03166001600160a81b03199092169190911717905582612226576004808501546001600160a01b03166000908152600960205260408120909101805491612220836137b6565b91905055505b6001840154600286810154908601546040516323b872dd60e01b81526001600160a01b03938416936323b872dd93612267933093929091169160040161344b565b600060405180830381600087803b15801561228157600080fd5b505af1158015612295573d6000803e3d6000fd5b505050506122a7856001015487612d05565b600285015460018601546003870154604080518a815260208101939093528201526001600160a01b039091169033907f537afea1137614386dde2e3f3f603a09e8ba6fbcd0a9d59b286a6f7e5fc938489060600160405180910390a36002858101546004860154600187015487549388015460038a01546040805196875260208701929092529085015286151560608501526001600160a01b03928316939183169216907f404b7146b7abeb84305bc0da3ce681304c1d92bcd81f912256baa31b857f30189060800160405180910390a45050600160005550505050565b60006064600254606461239891906136ca565b6000848152600660205260409020600301546123b49190613702565b61082a91906136e2565b60055460ff16156123e15760405162461bcd60e51b81526004016108f69061352d565b806000811180156123f457506003548111155b6124105760405162461bcd60e51b81526004016108f690613587565b60008281526006602081905260409091209081015483919015806124375750806006015442105b6124765760405162461bcd60e51b815260206004820152601060248201526f125d195b481a185cc8195e1c1a5c995960821b60448201526064016108f6565b600260005414156124995760405162461bcd60e51b81526004016108f6906135b3565b600260009081556124a985612385565b6000868152600660205260409020909150348211156125015760405162461bcd60e51b8152602060048201526014602482015273125b9cdd59999a58da595b9d081c185e5b595b9d60621b60448201526064016108f6565b6005810154600160a01b900460ff161561252d5760405162461bcd60e51b81526004016108f6906135ea565b6005810154600160a81b900460ff161561257a5760405162461bcd60e51b815260206004820152600e60248201526d125d195b4818d85b98d95b1b195960921b60448201526064016108f6565b6005810154600160b01b900460ff16156125a65760405162461bcd60e51b81526004016108f69061355c565b60058101546001600160a01b03163314156126035760405162461bcd60e51b815260206004820152601860248201527f43616e6e6f742062757920796f7572206f776e206974656d000000000000000060448201526064016108f6565b600481015460058201546001600160a01b039081169116148015906126885781600701548260080154106126705760405162461bcd60e51b815260206004820152601460248201527314995cd85b19481b1a5b5a5d081c995858da195960621b60448201526064016108f6565b600882018054906000612682836137b6565b91905055505b600060646002548561269a9190613702565b6126a491906136e2565b905060006126b28286613721565b60058501546040519192506001600160a01b03169082156108fc029083906000818181858888f193505050501580156126ef573d6000803e3d6000fd5b506040516001600160a01b037f0000000000000000000000000000000000000000000000000000000000000000169083156108fc029084906000818181858888f19350505050158015612746573d6000803e3d6000fd5b506005840180546001600160a81b0319163317600160a01b17905582612798576004808501546001600160a01b03166000908152600960205260408120909101805491612792836137b6565b91905055505b600184015460028501546040516323b872dd60e01b81526001600160a01b03909216916323b872dd916127d1913091339160040161344b565b600060405180830381600087803b1580156127eb57600080fd5b505af11580156127ff573d6000803e3d6000fd5b5050505061280c89612bcf565b600484015460018501546002860154604080518d815260208101929092528101889052851515606082015233926001600160a01b039081169216907f404b7146b7abeb84305bc0da3ce681304c1d92bcd81f912256baa31b857f30189060800160405180910390a45050600160005550505050505050565b600082815260016020819052604090912001546128a18133612a99565b610cc48383612b68565b600260005414156128ce5760405162461bcd60e51b81526004016108f6906135b3565b60026000818155828152600760205260409020908101546001600160a01b031633146129465760405162461bcd60e51b815260206004820152602160248201527f4f6e6c792062757965722063616e2063616e63656c207468656972206f6666656044820152603960f91b60648201526084016108f6565b600481015460ff16156129945760405162461bcd60e51b815260206004820152601660248201527513d999995c88185b1c9958591e481858d8d95c1d195960521b60448201526064016108f6565b6004810154610100900460ff16156129ee5760405162461bcd60e51b815260206004820152601760248201527f4f6666657220616c72656164792063616e63656c6c656400000000000000000060448201526064016108f6565b60048101805461ff001916610100179055600281015460038201546040516001600160a01b039092169181156108fc0291906000818181858888f19350505050158015612a3f573d6000803e3d6000fd5b50600281015460018201546040805185815260208101929092526001600160a01b03909216917f5b166b4d0498ff8c4719999cb6154c5d197e6f020f9fbfcf9d347f84576cfab7910160405180910390a250506001600055565b612aa38282611aa6565b6111e657612abb816001600160a01b03166014612e4f565b612ac6836020612e4f565b604051602001612ad79291906133d6565b60408051601f198184030181529082905262461bcd60e51b82526108f6916004016134b3565b612b078282611aa6565b6111e65760008281526001602081815260408084206001600160a01b0386168086529252808420805460ff19169093179092559051339285917f2f8788117e7eff1d82e926ec794901d17c78024a50270940304540a733656f0d9190a45050565b612b728282611aa6565b156111e65760008281526001602090815260408083206001600160a01b0385168085529252808320805460ff1916905551339285917ff6391f5c32d9c69d2a47ea670b442974b53935d1edc7fd64eb21e047a839171b9190a45050565b600081815260086020908152604080832080548251818502810185019093528083529192909190830182828015612c2557602002820191906000526020600020905b815481526020019060010190808311612c11575b5050505050905060005b8151811015610cc457600060076000848481518110612c5e57634e487b7160e01b600052603260045260246000fd5b6020026020010151815260200190815260200160002090508060040160019054906101000a900460ff16158015612c9a5750600481015460ff16155b15612cf25760048101805461ff001916610100179055600281015460038201546040516001600160a01b039092169181156108fc0291906000818181858888f19350505050158015612cf0573d6000803e3d6000fd5b505b5080612cfd816137b6565b915050612c2f565b600082815260086020908152604080832080548251818502810185019093528083529192909190830182828015612d5b57602002820191906000526020600020905b815481526020019060010190808311612d47575b5050505050905060005b8151811015612e49576000828281518110612d9057634e487b7160e01b600052603260045260246000fd5b602002602001015190506000600760008381526020019081526020016000209050848214158015612dcb57506004810154610100900460ff16155b8015612ddc5750600481015460ff16155b15612e345760048101805461ff001916610100179055600281015460038201546040516001600160a01b039092169181156108fc0291906000818181858888f19350505050158015612e32573d6000803e3d6000fd5b505b50508080612e41906137b6565b915050612d65565b50505050565b60606000612e5e836002613702565b612e699060026136ca565b67ffffffffffffffff811115612e8f57634e487b7160e01b600052604160045260246000fd5b6040519080825280601f01601f191660200182016040528015612eb9576020820181803683370190505b509050600360fc1b81600081518110612ee257634e487b7160e01b600052603260045260246000fd5b60200101906001600160f81b031916908160001a905350600f60fb1b81600181518110612f1f57634e487b7160e01b600052603260045260246000fd5b60200101906001600160f81b031916908160001a9053506000612f43846002613702565b612f4e9060016136ca565b90505b6001811115612fe2576f181899199a1a9b1b9c1cb0b131b232b360811b85600f1660108110612f9057634e487b7160e01b600052603260045260246000fd5b1a60f81b828281518110612fb457634e487b7160e01b600052603260045260246000fd5b60200101906001600160f81b031916908160001a90535060049490941c93612fdb81613764565b9050612f51565b5083156130315760405162461bcd60e51b815260206004820181905260248201527f537472696e67733a20686578206c656e67746820696e73756666696369656e7460448201526064016108f6565b9392505050565b8280546130449061377b565b90600052602060002090601f01602090048101928261306657600085556130ac565b82601f1061307f57805160ff19168380011785556130ac565b828001600101855582156130ac579182015b828111156130ac578251825591602001919060010190613091565b506130b89291506130bc565b5090565b5b808211156130b857600081556001016130bd565b803580151581146130e157600080fd5b919050565b600082601f8301126130f6578081fd5b813567ffffffffffffffff80821115613111576131116137e7565b604051601f8301601f19908116603f01168101908282118183101715613139576131396137e7565b81604052838152866020858801011115613151578485fd5b8360208701602083013792830160200193909352509392505050565b60006020828403121561317e578081fd5b8135613031816137fd565b60008060006060848603121561319d578182fd5b83356131a8816137fd565b9250602084013567ffffffffffffffff808211156131c4578384fd5b6131d0878388016130e6565b935060408601359150808211156131e5578283fd5b506131f2868287016130e6565b9150509250925092565b60008060008060808587031215613211578081fd5b843561321c816137fd565b9350602085013567ffffffffffffffff80821115613238578283fd5b613244888389016130e6565b94506040870135915080821115613259578283fd5b50613266878288016130e6565b925050613275606086016130d1565b905092959194509250565b600060208284031215613291578081fd5b613031826130d1565b6000602082840312156132ab578081fd5b5035919050565b600080604083850312156132c4578182fd5b8235915060208301356132d6816137fd565b809150509250929050565b6000602082840312156132f2578081fd5b81356001600160e01b031981168114613031578182fd5b60008060008060008060c08789031215613321578182fd5b863561332c816137fd565b9550602087013594506040870135935060608701356003811061334d578283fd5b9598949750929560808101359460a0909101359350915050565b60008060408385031215613379578182fd5b50508035926020909101359150565b600381106133a657634e487b7160e01b600052602160045260246000fd5b9052565b600081518084526133c2816020860160208601613738565b601f01601f19169290920160200192915050565b7f416363657373436f6e74726f6c3a206163636f756e742000000000000000000081526000835161340e816017850160208801613738565b7001034b99036b4b9b9b4b733903937b6329607d1b601791840191820152835161343f816028840160208801613738565b01602801949350505050565b6001600160a01b039384168152919092166020820152604081019190915260600190565b6020808252825182820181905260009190848201906040850190845b818110156134a75783518352928401929184019160010161348b565b50909695505050505050565b60208152600061303160208301846133aa565b6040815260006134d960408301856133aa565b905082151560208301529392505050565b60a0815260006134fd60a08301886133aa565b828103602084015261350f81886133aa565b95151560408401525050606081019290925260809091015292915050565b60208082526015908201527413585c9ad95d1c1b1858d9481a5cc81c185d5cd959605a1b604082015260600190565b602080825260119082015270125d195b48185b1c9958591e481d5cd959607a1b604082015260600190565b602080825260129082015271125d195b48191bd95cdb89dd08195e1a5cdd60721b604082015260600190565b6020808252601f908201527f5265656e7472616e637947756172643a207265656e7472616e742063616c6c00604082015260600190565b602080825260119082015270125d195b48185b1c9958591e481cdbdb19607a1b604082015260600190565b8d81526001600160a01b038d81166020830152604082018d9052606082018c90528a81166080830152891660a082015287151560c082015286151560e08201528515156101008201526101a08101613671610120830187613388565b8461014083015283610160830152826101808301529e9d5050505050505050505050505050565b858152602081018590526040810184905260a081016136ba6060830185613388565b8260808301529695505050505050565b600082198211156136dd576136dd6137d1565b500190565b6000826136fd57634e487b7160e01b81526012600452602481fd5b500490565b600081600019048311821515161561371c5761371c6137d1565b500290565b600082821015613733576137336137d1565b500390565b60005b8381101561375357818101518382015260200161373b565b83811115612e495750506000910152565b600081613773576137736137d1565b506000190190565b600181811c9082168061378f57607f821691505b602082108114156137b057634e487b7160e01b600052602260045260246000fd5b50919050565b60006000198214156137ca576137ca6137d1565b5060010190565b634e487b7160e01b600052601160045260246000fd5b634e487b7160e01b600052604160045260246000fd5b6001600160a01b038116811461381257600080fd5b5056fe114e74f6ea3bd819998f78687bfcb11b140da08e9b7d222fa9c1f1ba1f2aa122a49807205ce4d355092ef5a8a18f56e8913cf4a201fbe287825b095693c21775a26469706673582212206fa871b2eef90d6d4ef4d6aa7d61d4bfbbc4f88f6de264207bb699c7dbe5fb8564736f6c63430008040033",
  "linkReferences": {},
  "deployedLinkReferences": {}
}