{
  "_format": "hh-sol-artifact-1",
  "contractName": "Marketplace",
  "sourceName": "src/backend/contracts/Marketplace.sol",
  "abi": [
    {
      "inputs": [
        {
          "internalType": "uint256",
          "name": "_feePercent",
          "type": "uint256"
        }
      ],
      "stateMutability": "nonpayable",
      "type": "constructor"
    },
    {
      "anonymous": false,
      "inputs": [
        {
          "indexed": false,
          "internalType": "uint256",
          "name": "newFeePercent",
          "type": "uint256"
        }
      ],
      "name": "FeePercentUpdated",
      "type": "event"
    },
    {
      "anonymous": false,
      "inputs": [
        {
          "indexed": true,
          "internalType": "address",
          "name": "issuer",
          "type": "address"
        },
        {
          "indexed": false,
          "internalType": "string",
          "name": "name",
          "type": "string"
        }
      ],
      "name": "IssuerAdded",
      "type": "event"
    },
    {
      "anonymous": false,
      "inputs": [
        {
          "indexed": true,
          "internalType": "address",
          "name": "issuer",
          "type": "address"
        }
      ],
      "name": "IssuerRemoved",
      "type": "event"
    },
    {
      "anonymous": false,
      "inputs": [
        {
          "indexed": true,
          "internalType": "address",
          "name": "issuer",
          "type": "address"
        },
        {
          "indexed": false,
          "internalType": "string",
          "name": "name",
          "type": "string"
        },
        {
          "indexed": false,
          "internalType": "bool",
          "name": "isActive",
          "type": "bool"
        }
      ],
      "name": "IssuerUpdated",
      "type": "event"
    },
    {
      "anonymous": false,
      "inputs": [
        {
          "indexed": false,
          "internalType": "uint256",
          "name": "itemId",
          "type": "uint256"
        },
        {
          "indexed": true,
          "internalType": "address",
          "name": "issuer",
          "type": "address"
        }
      ],
      "name": "ItemCancelled",
      "type": "event"
    },
    {
      "anonymous": false,
      "inputs": [
        {
          "indexed": false,
          "internalType": "uint256",
          "name": "itemId",
          "type": "uint256"
        },
        {
          "indexed": true,
          "internalType": "address",
          "name": "nft",
          "type": "address"
        },
        {
          "indexed": false,
          "internalType": "uint256",
          "name": "tokenId",
          "type": "uint256"
        },
        {
          "indexed": false,
          "internalType": "uint256",
          "name": "price",
          "type": "uint256"
        },
        {
          "indexed": true,
          "internalType": "address",
          "name": "issuer",
          "type": "address"
        },
        {
          "indexed": false,
          "internalType": "enum Marketplace.ItemType",
          "name": "itemType",
          "type": "uint8"
        }
      ],
      "name": "ItemCreated",
      "type": "event"
    },
    {
      "anonymous": false,
      "inputs": [
        {
          "indexed": false,
          "internalType": "uint256",
          "name": "itemId",
          "type": "uint256"
        },
        {
          "indexed": true,
          "internalType": "address",
          "name": "issuer",
          "type": "address"
        },
        {
          "indexed": true,
          "internalType": "address",
          "name": "owner",
          "type": "address"
        }
      ],
      "name": "ItemRedeemed",
      "type": "event"
    },
    {
      "anonymous": false,
      "inputs": [
        {
          "indexed": false,
          "internalType": "uint256",
          "name": "itemId",
          "type": "uint256"
        },
        {
          "indexed": true,
          "internalType": "address",
          "name": "nft",
          "type": "address"
        },
        {
          "indexed": false,
          "internalType": "uint256",
          "name": "tokenId",
          "type": "uint256"
        },
        {
          "indexed": false,
          "internalType": "uint256",
          "name": "price",
          "type": "uint256"
        },
        {
          "indexed": true,
          "internalType": "address",
          "name": "issuer",
          "type": "address"
        },
        {
          "indexed": true,
          "internalType": "address",
          "name": "buyer",
          "type": "address"
        }
      ],
      "name": "ItemSold",
      "type": "event"
    },
    {
      "anonymous": false,
      "inputs": [
        {
          "indexed": false,
          "internalType": "bool",
          "name": "isPaused",
          "type": "bool"
        }
      ],
      "name": "MarketplacePaused",
      "type": "event"
    },
    {
      "anonymous": false,
      "inputs": [
        {
          "indexed": false,
          "internalType": "uint256",
          "name": "offerId",
          "type": "uint256"
        },
        {
          "indexed": false,
          "internalType": "uint256",
          "name": "itemId",
          "type": "uint256"
        },
        {
          "indexed": true,
          "internalType": "address",
          "name": "seller",
          "type": "address"
        },
        {
          "indexed": true,
          "internalType": "address",
          "name": "buyer",
          "type": "address"
        },
        {
          "indexed": false,
          "internalType": "uint256",
          "name": "price",
          "type": "uint256"
        }
      ],
      "name": "OfferAccepted",
      "type": "event"
    },
    {
      "anonymous": false,
      "inputs": [
        {
          "indexed": false,
          "internalType": "uint256",
          "name": "offerId",
          "type": "uint256"
        },
        {
          "indexed": false,
          "internalType": "uint256",
          "name": "itemId",
          "type": "uint256"
        },
        {
          "indexed": true,
          "internalType": "address",
          "name": "buyer",
          "type": "address"
        }
      ],
      "name": "OfferCancelled",
      "type": "event"
    },
    {
      "anonymous": false,
      "inputs": [
        {
          "indexed": false,
          "internalType": "uint256",
          "name": "offerId",
          "type": "uint256"
        },
        {
          "indexed": false,
          "internalType": "uint256",
          "name": "itemId",
          "type": "uint256"
        },
        {
          "indexed": true,
          "internalType": "address",
          "name": "buyer",
          "type": "address"
        },
        {
          "indexed": false,
          "internalType": "uint256",
          "name": "price",
          "type": "uint256"
        }
      ],
      "name": "OfferMade",
      "type": "event"
    },
    {
      "anonymous": false,
      "inputs": [
        {
          "indexed": true,
          "internalType": "bytes32",
          "name": "role",
          "type": "bytes32"
        },
        {
          "indexed": true,
          "internalType": "bytes32",
          "name": "previousAdminRole",
          "type": "bytes32"
        },
        {
          "indexed": true,
          "internalType": "bytes32",
          "name": "newAdminRole",
          "type": "bytes32"
        }
      ],
      "name": "RoleAdminChanged",
      "type": "event"
    },
    {
      "anonymous": false,
      "inputs": [
        {
          "indexed": true,
          "internalType": "bytes32",
          "name": "role",
          "type": "bytes32"
        },
        {
          "indexed": true,
          "internalType": "address",
          "name": "account",
          "type": "address"
        },
        {
          "indexed": true,
          "internalType": "address",
          "name": "sender",
          "type": "address"
        }
      ],
      "name": "RoleGranted",
      "type": "event"
    },
    {
      "anonymous": false,
      "inputs": [
        {
          "indexed": true,
          "internalType": "bytes32",
          "name": "role",
          "type": "bytes32"
        },
        {
          "indexed": true,
          "internalType": "address",
          "name": "account",
          "type": "address"
        },
        {
          "indexed": true,
          "internalType": "address",
          "name": "sender",
          "type": "address"
        }
      ],
      "name": "RoleRevoked",
      "type": "event"
    },
    {
      "inputs": [],
      "name": "ADMIN_ROLE",
      "outputs": [
        {
          "internalType": "bytes32",
          "name": "",
          "type": "bytes32"
        }
      ],
      "stateMutability": "view",
      "type": "function"
    },
    {
      "inputs": [],
      "name": "DEFAULT_ADMIN_ROLE",
      "outputs": [
        {
          "internalType": "bytes32",
          "name": "",
          "type": "bytes32"
        }
      ],
      "stateMutability": "view",
      "type": "function"
    },
    {
      "inputs": [],
      "name": "ISSUER_ROLE",
      "outputs": [
        {
          "internalType": "bytes32",
          "name": "",
          "type": "bytes32"
        }
      ],
      "stateMutability": "view",
      "type": "function"
    },
    {
      "inputs": [
        {
          "internalType": "uint256",
          "name": "_offerId",
          "type": "uint256"
        }
      ],
      "name": "acceptOffer",
      "outputs": [],
      "stateMutability": "nonpayable",
      "type": "function"
    },
    {
      "inputs": [
        {
          "internalType": "address",
          "name": "_issuer",
          "type": "address"
        },
        {
          "internalType": "string",
          "name": "_name",
          "type": "string"
        },
        {
          "internalType": "string",
          "name": "_description",
          "type": "string"
        }
      ],
      "name": "addIssuer",
      "outputs": [],
      "stateMutability": "nonpayable",
      "type": "function"
    },
    {
      "inputs": [
        {
          "internalType": "uint256",
          "name": "_itemId",
          "type": "uint256"
        }
      ],
      "name": "cancelItem",
      "outputs": [],
      "stateMutability": "nonpayable",
      "type": "function"
    },
    {
      "inputs": [
        {
          "internalType": "uint256",
          "name": "_offerId",
          "type": "uint256"
        }
      ],
      "name": "cancelOffer",
      "outputs": [],
      "stateMutability": "nonpayable",
      "type": "function"
    },
    {
      "inputs": [
        {
          "internalType": "contract IERC721",
          "name": "_nft",
          "type": "address"
        },
        {
          "internalType": "uint256",
          "name": "_tokenId",
          "type": "uint256"
        },
        {
          "internalType": "uint256",
          "name": "_price",
          "type": "uint256"
        },
        {
          "internalType": "enum Marketplace.ItemType",
          "name": "_itemType",
          "type": "uint8"
        }
      ],
      "name": "createItem",
      "outputs": [],
      "stateMutability": "nonpayable",
      "type": "function"
    },
    {
      "inputs": [],
      "name": "feeAccount",
      "outputs": [
        {
          "internalType": "address payable",
          "name": "",
          "type": "address"
        }
      ],
      "stateMutability": "view",
      "type": "function"
    },
    {
      "inputs": [],
      "name": "feePercent",
      "outputs": [
        {
          "internalType": "uint256",
          "name": "",
          "type": "uint256"
        }
      ],
      "stateMutability": "view",
      "type": "function"
    },
    {
      "inputs": [
        {
          "internalType": "address",
          "name": "_issuer",
          "type": "address"
        }
      ],
      "name": "getIssuerInfo",
      "outputs": [
        {
          "internalType": "string",
          "name": "name",
          "type": "string"
        },
        {
          "internalType": "string",
          "name": "description",
          "type": "string"
        },
        {
          "internalType": "bool",
          "name": "isActive",
          "type": "bool"
        },
        {
          "internalType": "uint256",
          "name": "totalItemsCreated",
          "type": "uint256"
        },
        {
          "internalType": "uint256",
          "name": "totalSales",
          "type": "uint256"
        }
      ],
      "stateMutability": "view",
      "type": "function"
    },
    {
      "inputs": [
        {
          "internalType": "uint256",
          "name": "_itemId",
          "type": "uint256"
        }
      ],
      "name": "getItemOffers",
      "outputs": [
        {
          "internalType": "uint256[]",
          "name": "",
          "type": "uint256[]"
        }
      ],
      "stateMutability": "view",
      "type": "function"
    },
    {
      "inputs": [
        {
          "internalType": "uint256",
          "name": "_offerId",
          "type": "uint256"
        }
      ],
      "name": "getOffer",
      "outputs": [
        {
          "internalType": "uint256",
          "name": "offerId",
          "type": "uint256"
        },
        {
          "internalType": "uint256",
          "name": "itemId",
          "type": "uint256"
        },
        {
          "internalType": "address",
          "name": "buyer",
          "type": "address"
        },
        {
          "internalType": "uint256",
          "name": "price",
          "type": "uint256"
        },
        {
          "internalType": "bool",
          "name": "accepted",
          "type": "bool"
        },
        {
          "internalType": "bool",
          "name": "cancelled",
          "type": "bool"
        }
      ],
      "stateMutability": "view",
      "type": "function"
    },
    {
      "inputs": [
        {
          "internalType": "bytes32",
          "name": "role",
          "type": "bytes32"
        }
      ],
      "name": "getRoleAdmin",
      "outputs": [
        {
          "internalType": "bytes32",
          "name": "",
          "type": "bytes32"
        }
      ],
      "stateMutability": "view",
      "type": "function"
    },
    {
      "inputs": [
        {
          "internalType": "uint256",
          "name": "_itemId",
          "type": "uint256"
        }
      ],
      "name": "getTotalPrice",
      "outputs": [
        {
          "internalType": "uint256",
          "name": "",
          "type": "uint256"
        }
      ],
      "stateMutability": "view",
      "type": "function"
    },
    {
      "inputs": [
        {
          "internalType": "bytes32",
          "name": "role",
          "type": "bytes32"
        },
        {
          "internalType": "address",
          "name": "account",
          "type": "address"
        }
      ],
      "name": "grantRole",
      "outputs": [],
      "stateMutability": "nonpayable",
      "type": "function"
    },
    {
      "inputs": [
        {
          "internalType": "bytes32",
          "name": "role",
          "type": "bytes32"
        },
        {
          "internalType": "address",
          "name": "account",
          "type": "address"
        }
      ],
      "name": "hasRole",
      "outputs": [
        {
          "internalType": "bool",
          "name": "",
          "type": "bool"
        }
      ],
      "stateMutability": "view",
      "type": "function"
    },
    {
      "inputs": [
        {
          "internalType": "address",
          "name": "_address",
          "type": "address"
        }
      ],
      "name": "isAuthorizedIssuer",
      "outputs": [
        {
          "internalType": "bool",
          "name": "",
          "type": "bool"
        }
      ],
      "stateMutability": "view",
      "type": "function"
    },
    {
      "inputs": [
        {
          "internalType": "address",
          "name": "",
          "type": "address"
        }
      ],
      "name": "issuers",
      "outputs": [
        {
          "internalType": "string",
          "name": "name",
          "type": "string"
        },
        {
          "internalType": "string",
          "name": "description",
          "type": "string"
        },
        {
          "internalType": "bool",
          "name": "isActive",
          "type": "bool"
        },
        {
          "internalType": "uint256",
          "name": "totalItemsCreated",
          "type": "uint256"
        },
        {
          "internalType": "uint256",
          "name": "totalSales",
          "type": "uint256"
        }
      ],
      "stateMutability": "view",
      "type": "function"
    },
    {
      "inputs": [],
      "name": "itemCount",
      "outputs": [
        {
          "internalType": "uint256",
          "name": "",
          "type": "uint256"
        }
      ],
      "stateMutability": "view",
      "type": "function"
    },
    {
      "inputs": [
        {
          "internalType": "uint256",
          "name": "",
          "type": "uint256"
        },
        {
          "internalType": "uint256",
          "name": "",
          "type": "uint256"
        }
      ],
      "name": "itemOffers",
      "outputs": [
        {
          "internalType": "uint256",
          "name": "",
          "type": "uint256"
        }
      ],
      "stateMutability": "view",
      "type": "function"
    },
    {
      "inputs": [
        {
          "internalType": "uint256",
          "name": "",
          "type": "uint256"
        }
      ],
      "name": "items",
      "outputs": [
        {
          "internalType": "uint256",
          "name": "itemId",
          "type": "uint256"
        },
        {
          "internalType": "contract IERC721",
          "name": "nft",
          "type": "address"
        },
        {
          "internalType": "uint256",
          "name": "tokenId",
          "type": "uint256"
        },
        {
          "internalType": "uint256",
          "name": "price",
          "type": "uint256"
        },
        {
          "internalType": "address payable",
          "name": "issuer",
          "type": "address"
        },
        {
          "internalType": "address payable",
          "name": "currentOwner",
          "type": "address"
        },
        {
          "internalType": "bool",
          "name": "sold",
          "type": "bool"
        },
        {
          "internalType": "bool",
          "name": "cancelled",
          "type": "bool"
        },
        {
          "internalType": "bool",
          "name": "isUsed",
          "type": "bool"
        },
        {
          "internalType": "enum Marketplace.ItemType",
          "name": "itemType",
          "type": "uint8"
        }
      ],
      "stateMutability": "view",
      "type": "function"
    },
    {
      "inputs": [
        {
          "internalType": "uint256",
          "name": "_itemId",
          "type": "uint256"
        }
      ],
      "name": "makeOffer",
      "outputs": [],
      "stateMutability": "payable",
      "type": "function"
    },
    {
      "inputs": [],
      "name": "offerCount",
      "outputs": [
        {
          "internalType": "uint256",
          "name": "",
          "type": "uint256"
        }
      ],
      "stateMutability": "view",
      "type": "function"
    },
    {
      "inputs": [
        {
          "internalType": "uint256",
          "name": "",
          "type": "uint256"
        }
      ],
      "name": "offers",
      "outputs": [
        {
          "internalType": "uint256",
          "name": "offerId",
          "type": "uint256"
        },
        {
          "internalType": "uint256",
          "name": "itemId",
          "type": "uint256"
        },
        {
          "internalType": "address payable",
          "name": "buyer",
          "type": "address"
        },
        {
          "internalType": "uint256",
          "name": "price",
          "type": "uint256"
        },
        {
          "internalType": "bool",
          "name": "accepted",
          "type": "bool"
        },
        {
          "internalType": "bool",
          "name": "cancelled",
          "type": "bool"
        }
      ],
      "stateMutability": "view",
      "type": "function"
    },
    {
      "inputs": [],
      "name": "paused",
      "outputs": [
        {
          "internalType": "bool",
          "name": "",
          "type": "bool"
        }
      ],
      "stateMutability": "view",
      "type": "function"
    },
    {
      "inputs": [
        {
          "internalType": "uint256",
          "name": "_itemId",
          "type": "uint256"
        }
      ],
      "name": "purchaseItem",
      "outputs": [],
      "stateMutability": "payable",
      "type": "function"
    },
    {
      "inputs": [
        {
          "internalType": "uint256",
          "name": "_itemId",
          "type": "uint256"
        }
      ],
      "name": "redeemItem",
      "outputs": [],
      "stateMutability": "nonpayable",
      "type": "function"
    },
    {
      "inputs": [
        {
          "internalType": "address",
          "name": "_issuer",
          "type": "address"
        }
      ],
      "name": "removeIssuer",
      "outputs": [],
      "stateMutability": "nonpayable",
      "type": "function"
    },
    {
      "inputs": [
        {
          "internalType": "bytes32",
          "name": "role",
          "type": "bytes32"
        },
        {
          "internalType": "address",
          "name": "account",
          "type": "address"
        }
      ],
      "name": "renounceRole",
      "outputs": [],
      "stateMutability": "nonpayable",
      "type": "function"
    },
    {
      "inputs": [
        {
          "internalType": "bytes32",
          "name": "role",
          "type": "bytes32"
        },
        {
          "internalType": "address",
          "name": "account",
          "type": "address"
        }
      ],
      "name": "revokeRole",
      "outputs": [],
      "stateMutability": "nonpayable",
      "type": "function"
    },
    {
      "inputs": [
        {
          "internalType": "uint256",
          "name": "_feePercent",
          "type": "uint256"
        }
      ],
      "name": "setFeePercent",
      "outputs": [],
      "stateMutability": "nonpayable",
      "type": "function"
    },
    {
      "inputs": [
        {
          "internalType": "bool",
          "name": "_paused",
          "type": "bool"
        }
      ],
      "name": "setPaused",
      "outputs": [],
      "stateMutability": "nonpayable",
      "type": "function"
    },
    {
      "inputs": [
        {
          "internalType": "bytes4",
          "name": "interfaceId",
          "type": "bytes4"
        }
      ],
      "name": "supportsInterface",
      "outputs": [
        {
          "internalType": "bool",
          "name": "",
          "type": "bool"
        }
      ],
      "stateMutability": "view",
      "type": "function"
    },
    {
      "inputs": [
        {
          "internalType": "address",
          "name": "_issuer",
          "type": "address"
        },
        {
          "internalType": "string",
          "name": "_name",
          "type": "string"
        },
        {
          "internalType": "string",
          "name": "_description",
          "type": "string"
        },
        {
          "internalType": "bool",
          "name": "_isActive",
          "type": "bool"
        }
      ],
      "name": "updateIssuer",
      "outputs": [],
      "stateMutability": "nonpayable",
      "type": "function"
    }
  ],
  "bytecode": "0x60a06040523480156200001157600080fd5b50604051620036663803806200366683398101604081905262000034916200011b565b6001600090815533606081901b60805260028390556005805460ff191690556200005f919062000092565b6200008b7fa49807205ce4d355092ef5a8a18f56e8913cf4a201fbe287825b095693c217753362000092565b5062000134565b60008281526001602090815260408083206001600160a01b038516845290915290205460ff16620001175760008281526001602081815260408084206001600160a01b0386168086529252808420805460ff19169093179092559051339285917f2f8788117e7eff1d82e926ec794901d17c78024a50270940304540a733656f0d9190a45b5050565b6000602082840312156200012d578081fd5b5051919050565b60805160601c61350562000161600039600081816104fd01528181611f1c01526123b901526135056000f3fe6080604052600436106102045760003560e01c806365e17c9d1161011857806391d14854116100a0578063c815729d1161006f578063c815729d1461074e578063ca7dd3751461076e578063d38ea5bf1461078e578063d547741f146107a1578063ef706adf146107c157600080fd5b806391d14854146106675780639a2f647414610687578063a217fddf1461069a578063bfb231d2146106af57600080fd5b80637ce3489b116100e75780637ce3489b1461058f5780637fd6f15c146105af57806382aefa24146105c55780638a72ea6a146105e757806390df01741461064757600080fd5b806365e17c9d146104eb57806369ae5883146105375780636bfb0d011461055757806375b238fc1461056d57600080fd5b806336568abe1161019b57806347bc70931161016a57806347bc7093146104515780634e5e08231461047157806351563f8e146104915780635c975abb146104b15780635e9aab70146104cb57600080fd5b806336568abe1461033557806338a7543e1461035557806343b555dd146103865780634579268a146103b357600080fd5b80631c26dc23116101d75780631c26dc23146102a4578063248a9ca3146102c45780632f2ff15d146102f557806331ba19661461031557600080fd5b806301ffc9a7146102095780631115c24d1461023e57806316c38b3c146102625780631aa76b4314610284575b600080fd5b34801561021557600080fd5b50610229610224366004612f8c565b6107e1565b60405190151581526020015b60405180910390f35b34801561024a57600080fd5b5061025460045481565b604051908152602001610235565b34801561026e57600080fd5b5061028261027d366004612f2b565b610818565b005b34801561029057600080fd5b5061028261029f366004612e34565b61087a565b3480156102b057600080fd5b506102826102bf366004612f45565b610a3c565b3480156102d057600080fd5b506102546102df366004612f45565b6000908152600160208190526040909120015490565b34801561030157600080fd5b50610282610310366004612f5d565b610c28565b34801561032157600080fd5b50610229610330366004612e18565b610c54565b34801561034157600080fd5b50610282610350366004612f5d565b610c97565b34801561036157600080fd5b50610375610370366004612e18565b610d15565b604051610235959493929190613183565b34801561039257600080fd5b506103a66103a1366004612f45565b610e59565b6040516102359190613108565b3480156103bf57600080fd5b506104146103ce366004612f45565b60009081526007602052604090208054600182015460028301546003840154600490940154929491936001600160a01b0390911692909160ff8083169261010090041690565b6040805196875260208701959095526001600160a01b039093169385019390935260608401529015156080830152151560a082015260c001610235565b34801561045d57600080fd5b5061028261046c366004612e18565b610ebb565b34801561047d57600080fd5b5061028261048c366004612fb4565b610f8d565b34801561049d57600080fd5b506102826104ac366004612f45565b61136a565b3480156104bd57600080fd5b506005546102299060ff1681565b3480156104d757600080fd5b506103756104e6366004612e18565b611654565b3480156104f757600080fd5b5061051f7f000000000000000000000000000000000000000000000000000000000000000081565b6040516001600160a01b039091168152602001610235565b34801561054357600080fd5b50610254610552366004613000565b6117c1565b34801561056357600080fd5b5061025460035481565b34801561057957600080fd5b506102546000805160206134b083398151915281565b34801561059b57600080fd5b506102826105aa366004612f45565b6117f2565b3480156105bb57600080fd5b5061025460025481565b3480156105d157600080fd5b5061025460008051602061349083398151915281565b3480156105f357600080fd5b50610414610602366004612f45565b60076020526000908152604090208054600182015460028301546003840154600490940154929391926001600160a01b03909116919060ff8082169161010090041686565b34801561065357600080fd5b50610282610662366004612ea7565b611880565b34801561067357600080fd5b50610229610682366004612f5d565b6119af565b610282610695366004612f45565b6119da565b3480156106a657600080fd5b50610254600081565b3480156106bb57600080fd5b506107386106ca366004612f45565b60066020526000908152604090208054600182015460028301546003840154600485015460059095015493946001600160a01b0393841694929391929082169181169060ff600160a01b8204811691600160a81b8104821691600160b01b8204811691600160b81b9004168a565b6040516102359a999897969594939291906132ae565b34801561075a57600080fd5b50610282610769366004612f45565b611d03565b34801561077a57600080fd5b50610254610789366004612f45565b61212c565b61028261079c366004612f45565b612165565b3480156107ad57600080fd5b506102826107bc366004612f5d565b61252f565b3480156107cd57600080fd5b506102826107dc366004612f45565b612556565b60006001600160e01b03198216637965db0b60e01b148061081257506301ffc9a760e01b6001600160e01b03198316145b92915050565b6000805160206134b08339815191526108318133612744565b6005805460ff19168315159081179091556040519081527f2d8cb32b79ced32c38fb4a61d8482c40627602feb2cc34b50d9b55eea376d88c906020015b60405180910390a15050565b6000805160206134b08339815191526108938133612744565b6001600160a01b0384166108e75760405162461bcd60e51b8152602060048201526016602482015275496e76616c696420697373756572206164647265737360501b60448201526064015b60405180910390fd5b6108ff600080516020613490833981519152856119af565b156109405760405162461bcd60e51b815260206004820152601160248201527020b63932b0b23c9030b71034b9b9bab2b960791b60448201526064016108de565b610958600080516020613490833981519152856127a8565b6040805160a0810182528481526020808201859052600182840152600060608301819052608083018190526001600160a01b0388168152600982529290922081518051929391926109ac9284920190612ce3565b5060208281015180516109c59260018501920190612ce3565b5060408281015160028301805460ff191691151591909117905560608301516003830155608090920151600490910155516001600160a01b038516907fbffc9e6add894cdc9f3243f85aaf5e65d6f6284f63658ea53ea9dd241e4276d890610a2e90869061314c565b60405180910390a250505050565b60026000541415610a5f5760405162461bcd60e51b81526004016108de9061324c565b6002600055808015801590610a7657506003548111155b610a925760405162461bcd60e51b81526004016108de90613220565b600082815260066020526040902060048101546001600160a01b0316331480610ace5750610ace6000805160206134b0833981519152336119af565b610b1a5760405162461bcd60e51b815260206004820152601e60248201527f43616c6c65722063616e6e6f742072656465656d2074686973206974656d000060448201526064016108de565b6005810154600160b01b900460ff1615610b765760405162461bcd60e51b815260206004820152601a60248201527f4974656d20616c726561647920757365642f72656465656d656400000000000060448201526064016108de565b6005810154600160a81b900460ff1615610bc65760405162461bcd60e51b8152602060048201526011602482015270125d195b481a5cc818d85b98d95b1b1959607a1b60448201526064016108de565b600581018054600160b01b60ff60b01b198216179091556040518481526001600160a01b039091169033907f6297df5e5500091751d031e739850304e0aa60eb33b99045446eea1889a16c2c9060200160405180910390a35050600160005550565b60008281526001602081905260409091200154610c458133612744565b610c4f83836127a8565b505050565b6000610c6e600080516020613490833981519152836119af565b80156108125750506001600160a01b031660009081526009602052604090206002015460ff1690565b6001600160a01b0381163314610d075760405162461bcd60e51b815260206004820152602f60248201527f416363657373436f6e74726f6c3a2063616e206f6e6c792072656e6f756e636560448201526e103937b632b9903337b91039b2b63360891b60648201526084016108de565b610d118282612813565b5050565b600960205260009081526040902080548190610d30906133f5565b80601f0160208091040260200160405190810160405280929190818152602001828054610d5c906133f5565b8015610da95780601f10610d7e57610100808354040283529160200191610da9565b820191906000526020600020905b815481529060010190602001808311610d8c57829003601f168201915b505050505090806001018054610dbe906133f5565b80601f0160208091040260200160405190810160405280929190818152602001828054610dea906133f5565b8015610e375780601f10610e0c57610100808354040283529160200191610e37565b820191906000526020600020905b815481529060010190602001808311610e1a57829003601f168201915b5050505060028301546003840154600490940154929360ff9091169290915085565b600081815260086020908152604091829020805483518184028101840190945280845260609392830182828015610eaf57602002820191906000526020600020905b815481526020019060010190808311610e9b575b50505050509050919050565b6000805160206134b0833981519152610ed48133612744565b610eec600080516020613490833981519152836119af565b610f285760405162461bcd60e51b815260206004820152600d60248201526c2737ba1030b71034b9b9bab2b960991b60448201526064016108de565b610f4060008051602061349083398151915283612813565b6001600160a01b038216600081815260096020526040808220600201805460ff19169055517faf66545c919a3be306ee446d8f42a9558b5b022620df880517bc9593ec0f2d529190a25050565b610fa5600080516020613490833981519152336119af565b610fed5760405162461bcd60e51b815260206004820152601960248201527826bab9ba1031329030baba3437b934bd32b21034b9b9bab2b960391b60448201526064016108de565b3360009081526009602052604090206002015460ff1661104f5760405162461bcd60e51b815260206004820152601a60248201527f497373756572206163636f756e7420697320696e61637469766500000000000060448201526064016108de565b60055460ff16156110725760405162461bcd60e51b81526004016108de906131c6565b600260005414156110955760405162461bcd60e51b81526004016108de9061324c565b6002600055816110e75760405162461bcd60e51b815260206004820152601f60248201527f5072696365206d7573742062652067726561746572207468616e207a65726f0060448201526064016108de565b600380549060006110f783613430565b90915550506040516323b872dd60e01b81526001600160a01b038516906323b872dd9061112c903390309088906004016130e4565b600060405180830381600087803b15801561114657600080fd5b505af115801561115a573d6000803e3d6000fd5b5050604080516101408101825260035481526001600160a01b038816602082015290810186905260608101859052336080820181905260a0820152600060c0820181905260e0820181905261010082015291505061012081018260018111156111d357634e487b7160e01b600052602160045260246000fd5b9052600380546000908152600660209081526040918290208451815590840151600180830180546001600160a01b039384166001600160a01b0319918216179091559386015160028401556060860151948301949094556080850151600483018054918316919094161790925560a084015160058201805460c087015160e08801516101008901511515600160b01b0260ff60b01b19911515600160a81b029190911661ffff60a81b19921515600160a01b026001600160a81b0319909416959097169490941791909117169390931717808355610120850151919391929160ff60b81b1990911690600160b81b9084908111156112e157634e487b7160e01b600052602160045260246000fd5b021790555050336000908152600960205260408120600301805492509061130783613430565b9190505550336001600160a01b0316846001600160a01b03167f3f10fb1723b41c26ae9a9c79cdb9a76dee756f12357e2e4f3fe6589db05037bd6003548686866040516113579493929190613319565b60405180910390a3505060016000555050565b611382600080516020613490833981519152336119af565b6113ca5760405162461bcd60e51b815260206004820152601960248201527826bab9ba1031329030baba3437b934bd32b21034b9b9bab2b960391b60448201526064016108de565b3360009081526009602052604090206002015460ff1661142c5760405162461bcd60e51b815260206004820152601a60248201527f497373756572206163636f756e7420697320696e61637469766500000000000060448201526064016108de565b8060008111801561143f57506003548111155b61145b5760405162461bcd60e51b81526004016108de90613220565b6002600054141561147e5760405162461bcd60e51b81526004016108de9061324c565b6002600090815582815260066020526040902060048101546001600160a01b031633146114de5760405162461bcd60e51b815260206004820152600e60248201526d2737ba103a34329034b9b9bab2b960911b60448201526064016108de565b6005810154600160a01b900460ff161561150a5760405162461bcd60e51b81526004016108de90613283565b6005810154600160a81b900460ff161561155f5760405162461bcd60e51b8152602060048201526016602482015275125d195b48185b1c9958591e4818d85b98d95b1b195960521b60448201526064016108de565b6005810154600160b01b900460ff161561158b5760405162461bcd60e51b81526004016108de906131f5565b60058101805460ff60a81b1916600160a81b179055600181015460028201546040516323b872dd60e01b81526001600160a01b03909216916323b872dd916115d991309133916004016130e4565b600060405180830381600087803b1580156115f357600080fd5b505af1158015611607573d6000803e3d6000fd5b505050506116148361287a565b60405183815233907ff69c7ea3f71dad86e17ba97a88b7e8f1708c0946bd98c7584e9942f60da8728e906020015b60405180910390a25050600160005550565b6001600160a01b03811660009081526009602052604081206002810154600382015460048301548354606095869590948594859492938493600185019360ff16929185906116a1906133f5565b80601f01602080910402602001604051908101604052809291908181526020018280546116cd906133f5565b801561171a5780601f106116ef5761010080835404028352916020019161171a565b820191906000526020600020905b8154815290600101906020018083116116fd57829003601f168201915b5050505050945083805461172d906133f5565b80601f0160208091040260200160405190810160405280929190818152602001828054611759906133f5565b80156117a65780601f1061177b576101008083540402835291602001916117a6565b820191906000526020600020905b81548152906001019060200180831161178957829003601f168201915b50505050509350955095509550955095505091939590929450565b600860205281600052604060002081815481106117dd57600080fd5b90600052602060002001600091509150505481565b6000805160206134b083398151915261180b8133612744565b600a82111561184b5760405162461bcd60e51b815260206004820152600c60248201526b08ccaca40e8dede40d0d2ced60a31b60448201526064016108de565b60028290556040518281527f64d1887078a96d281ed60dd69ba75bfb6b5cd2cb4c2d2538b2eb7816a4c646ea9060200161086e565b6000805160206134b08339815191526118998133612744565b6118b1600080516020613490833981519152866119af565b6118ed5760405162461bcd60e51b815260206004820152600d60248201526c2737ba1030b71034b9b9bab2b960991b60448201526064016108de565b6001600160a01b0385166000908152600960209081526040909120855161191692870190612ce3565b506001600160a01b0385166000908152600960209081526040909120845161194692600190920191860190612ce3565b506001600160a01b03851660008181526009602052604090819020600201805460ff1916851515179055517fc9968e7dba0d8507fbdfefc771402d6a5915a2b9d68df388833035245f7081c6906119a0908790869061315f565b60405180910390a25050505050565b60009182526001602090815260408084206001600160a01b0393909316845291905290205460ff1690565b60055460ff16156119fd5760405162461bcd60e51b81526004016108de906131c6565b80600081118015611a1057506003548111155b611a2c5760405162461bcd60e51b81526004016108de90613220565b60026000541415611a4f5760405162461bcd60e51b81526004016108de9061324c565b600260009081558281526006602052604090208215801590611a7357506003548311155b611ab45760405162461bcd60e51b81526020600482015260126024820152711a5d195b48191bd95cdb89dd08195e1a5cdd60721b60448201526064016108de565b6005810154600160a01b900460ff1615611b045760405162461bcd60e51b81526020600482015260116024820152701a5d195b48185b1c9958591e481cdbdb19607a1b60448201526064016108de565b6005810154600160b01b900460ff1615611b305760405162461bcd60e51b81526004016108de906131f5565b60058101546001600160a01b0316331415611b8d5760405162461bcd60e51b815260206004820152601d60248201527f43616e6e6f74206f66666572206f6e20796f7572206f776e206974656d00000060448201526064016108de565b60003411611beb5760405162461bcd60e51b815260206004820152602560248201527f4f66666572207072696365206d7573742062652067726561746572207468616e604482015264207a65726f60d81b60648201526084016108de565b60048054906000611bfb83613430565b90915550506040805160c08101825260048054808352602080840188815233858701818152346060808901828152600060808b0181815260a08c01828152998252600789528c82209b518c5596516001808d0191909155945160028c0180546001600160a01b039092166001600160a01b0319909216919091179055905160038b015594519888018054975115156101000261ff00199a15159a909a1661ffff1990981697909717989098179095558a8352600884528783208654815492830182559084529284902001919091559254855190815290810188905293840152917f3b2a24777f28e9c99a6c31e1939554147f5cac067f06527c26a7619c1c6df5439101611642565b60026000541415611d265760405162461bcd60e51b81526004016108de9061324c565b6002600090815581815260076020908152604080832060018101548452600690925290912060058101546001600160a01b03163314611da75760405162461bcd60e51b815260206004820152601d60248201527f4f6e6c792073656c6c65722063616e20616363657074206f666665727300000060448201526064016108de565b6005810154600160b01b900460ff1615611dd35760405162461bcd60e51b81526004016108de906131f5565b6005810154600160a01b900460ff1615611dff5760405162461bcd60e51b81526004016108de90613283565b600482015460ff1615611e4d5760405162461bcd60e51b815260206004820152601660248201527513d999995c88185b1c9958591e481858d8d95c1d195960521b60448201526064016108de565b6004820154610100900460ff1615611e9d5760405162461bcd60e51b815260206004820152601360248201527213d999995c881dd85cc818d85b98d95b1b1959606a1b60448201526064016108de565b600060646002548460030154611eb3919061337c565b611ebd919061335c565b90506000818460030154611ed1919061339b565b60058401546040519192506001600160a01b03169082156108fc029083906000818181858888f19350505050158015611f0e573d6000803e3d6000fd5b506040516001600160a01b037f0000000000000000000000000000000000000000000000000000000000000000169083156108fc029084906000818181858888f19350505050158015611f65573d6000803e3d6000fd5b506004808501805460ff1916600117905560058401805460ff60a01b198116600160a01b908117835560028801546001600160a81b03199092166001600160a01b03928316171790915584820154166000908152600960205260408120909101805491611fd183613430565b90915550506001830154600285810154908501546040516323b872dd60e01b81526001600160a01b03938416936323b872dd9361201793309392909116916004016130e4565b600060405180830381600087803b15801561203157600080fd5b505af1158015612045573d6000803e3d6000fd5b505050506120578460010154866129b0565b6002840154600185015460038601546040805189815260208101939093528201526001600160a01b039091169033907f537afea1137614386dde2e3f3f603a09e8ba6fbcd0a9d59b286a6f7e5fc938489060600160405180910390a3600284810154600485015460018601548654938701546003890154604080519687526020870192909252908501526001600160a01b03928316939183169216907fb32862f3fcbd461518a1e17967bbddf5def6f2e8585ff76d19d614a6ca5a727d9060600160405180910390a450506001600055505050565b60006064600254606461213f9190613344565b60008481526006602052604090206003015461215b919061337c565b610812919061335c565b60055460ff16156121885760405162461bcd60e51b81526004016108de906131c6565b8060008111801561219b57506003548111155b6121b75760405162461bcd60e51b81526004016108de90613220565b600260005414156121da5760405162461bcd60e51b81526004016108de9061324c565b600260009081556121ea8361212c565b6000848152600660205260409020909150348211156122425760405162461bcd60e51b8152602060048201526014602482015273125b9cdd59999a58da595b9d081c185e5b595b9d60621b60448201526064016108de565b6005810154600160a01b900460ff161561226e5760405162461bcd60e51b81526004016108de90613283565b6005810154600160a81b900460ff16156122bb5760405162461bcd60e51b815260206004820152600e60248201526d125d195b4818d85b98d95b1b195960921b60448201526064016108de565b6005810154600160b01b900460ff16156122e75760405162461bcd60e51b81526004016108de906131f5565b60058101546001600160a01b03163314156123445760405162461bcd60e51b815260206004820152601860248201527f43616e6e6f742062757920796f7572206f776e206974656d000000000000000060448201526064016108de565b6000606460025484612356919061337c565b612360919061335c565b9050600061236e828561339b565b60058401546040519192506001600160a01b03169082156108fc029083906000818181858888f193505050501580156123ab573d6000803e3d6000fd5b506040516001600160a01b037f0000000000000000000000000000000000000000000000000000000000000000169083156108fc029084906000818181858888f19350505050158015612402573d6000803e3d6000fd5b506005830180546001600160a81b0319163317600160a01b1790556004808401546001600160a01b0316600090815260096020526040812090910180549161244983613430565b9091555050600183015460028401546040516323b872dd60e01b81526001600160a01b03909216916323b872dd9161248791309133916004016130e4565b600060405180830381600087803b1580156124a157600080fd5b505af11580156124b5573d6000803e3d6000fd5b505050506124c28661287a565b600483015460018401546002850154604080518a81526020810192909252810187905233926001600160a01b039081169216907fb32862f3fcbd461518a1e17967bbddf5def6f2e8585ff76d19d614a6ca5a727d9060600160405180910390a45050600160005550505050565b6000828152600160208190526040909120015461254c8133612744565b610c4f8383612813565b600260005414156125795760405162461bcd60e51b81526004016108de9061324c565b60026000818155828152600760205260409020908101546001600160a01b031633146125f15760405162461bcd60e51b815260206004820152602160248201527f4f6e6c792062757965722063616e2063616e63656c207468656972206f6666656044820152603960f91b60648201526084016108de565b600481015460ff161561263f5760405162461bcd60e51b815260206004820152601660248201527513d999995c88185b1c9958591e481858d8d95c1d195960521b60448201526064016108de565b6004810154610100900460ff16156126995760405162461bcd60e51b815260206004820152601760248201527f4f6666657220616c72656164792063616e63656c6c656400000000000000000060448201526064016108de565b60048101805461ff001916610100179055600281015460038201546040516001600160a01b039092169181156108fc0291906000818181858888f193505050501580156126ea573d6000803e3d6000fd5b50600281015460018201546040805185815260208101929092526001600160a01b03909216917f5b166b4d0498ff8c4719999cb6154c5d197e6f020f9fbfcf9d347f84576cfab7910160405180910390a250506001600055565b61274e82826119af565b610d1157612766816001600160a01b03166014612afa565b612771836020612afa565b60405160200161278292919061306f565b60408051601f198184030181529082905262461bcd60e51b82526108de9160040161314c565b6127b282826119af565b610d115760008281526001602081815260408084206001600160a01b0386168086529252808420805460ff19169093179092559051339285917f2f8788117e7eff1d82e926ec794901d17c78024a50270940304540a733656f0d9190a45050565b61281d82826119af565b15610d115760008281526001602090815260408083206001600160a01b0385168085529252808320805460ff1916905551339285917ff6391f5c32d9c69d2a47ea670b442974b53935d1edc7fd64eb21e047a839171b9190a45050565b6000818152600860209081526040808320805482518185028101850190935280835291929091908301828280156128d057602002820191906000526020600020905b8154815260200190600101908083116128bc575b5050505050905060005b8151811015610c4f5760006007600084848151811061290957634e487b7160e01b600052603260045260246000fd5b6020026020010151815260200190815260200160002090508060040160019054906101000a900460ff161580156129455750600481015460ff16155b1561299d5760048101805461ff001916610100179055600281015460038201546040516001600160a01b039092169181156108fc0291906000818181858888f1935050505015801561299b573d6000803e3d6000fd5b505b50806129a881613430565b9150506128da565b600082815260086020908152604080832080548251818502810185019093528083529192909190830182828015612a0657602002820191906000526020600020905b8154815260200190600101908083116129f2575b5050505050905060005b8151811015612af4576000828281518110612a3b57634e487b7160e01b600052603260045260246000fd5b602002602001015190506000600760008381526020019081526020016000209050848214158015612a7657506004810154610100900460ff16155b8015612a875750600481015460ff16155b15612adf5760048101805461ff001916610100179055600281015460038201546040516001600160a01b039092169181156108fc0291906000818181858888f19350505050158015612add573d6000803e3d6000fd5b505b50508080612aec90613430565b915050612a10565b50505050565b60606000612b0983600261337c565b612b14906002613344565b67ffffffffffffffff811115612b3a57634e487b7160e01b600052604160045260246000fd5b6040519080825280601f01601f191660200182016040528015612b64576020820181803683370190505b509050600360fc1b81600081518110612b8d57634e487b7160e01b600052603260045260246000fd5b60200101906001600160f81b031916908160001a905350600f60fb1b81600181518110612bca57634e487b7160e01b600052603260045260246000fd5b60200101906001600160f81b031916908160001a9053506000612bee84600261337c565b612bf9906001613344565b90505b6001811115612c8d576f181899199a1a9b1b9c1cb0b131b232b360811b85600f1660108110612c3b57634e487b7160e01b600052603260045260246000fd5b1a60f81b828281518110612c5f57634e487b7160e01b600052603260045260246000fd5b60200101906001600160f81b031916908160001a90535060049490941c93612c86816133de565b9050612bfc565b508315612cdc5760405162461bcd60e51b815260206004820181905260248201527f537472696e67733a20686578206c656e67746820696e73756666696369656e7460448201526064016108de565b9392505050565b828054612cef906133f5565b90600052602060002090601f016020900481019282612d115760008555612d57565b82601f10612d2a57805160ff1916838001178555612d57565b82800160010185558215612d57579182015b82811115612d57578251825591602001919060010190612d3c565b50612d63929150612d67565b5090565b5b80821115612d635760008155600101612d68565b80358015158114612d8c57600080fd5b919050565b600082601f830112612da1578081fd5b813567ffffffffffffffff80821115612dbc57612dbc613461565b604051601f8301601f19908116603f01168101908282118183101715612de457612de4613461565b81604052838152866020858801011115612dfc578485fd5b8360208701602083013792830160200193909352509392505050565b600060208284031215612e29578081fd5b8135612cdc81613477565b600080600060608486031215612e48578182fd5b8335612e5381613477565b9250602084013567ffffffffffffffff80821115612e6f578384fd5b612e7b87838801612d91565b93506040860135915080821115612e90578283fd5b50612e9d86828701612d91565b9150509250925092565b60008060008060808587031215612ebc578081fd5b8435612ec781613477565b9350602085013567ffffffffffffffff80821115612ee3578283fd5b612eef88838901612d91565b94506040870135915080821115612f04578283fd5b50612f1187828801612d91565b925050612f2060608601612d7c565b905092959194509250565b600060208284031215612f3c578081fd5b612cdc82612d7c565b600060208284031215612f56578081fd5b5035919050565b60008060408385031215612f6f578182fd5b823591506020830135612f8181613477565b809150509250929050565b600060208284031215612f9d578081fd5b81356001600160e01b031981168114612cdc578182fd5b60008060008060808587031215612fc9578384fd5b8435612fd481613477565b93506020850135925060408501359150606085013560028110612ff5578182fd5b939692955090935050565b60008060408385031215613012578182fd5b50508035926020909101359150565b6002811061303f57634e487b7160e01b600052602160045260246000fd5b9052565b6000815180845261305b8160208601602086016133b2565b601f01601f19169290920160200192915050565b7f416363657373436f6e74726f6c3a206163636f756e74200000000000000000008152600083516130a78160178501602088016133b2565b7001034b99036b4b9b9b4b733903937b6329607d1b60179184019182015283516130d88160288401602088016133b2565b01602801949350505050565b6001600160a01b039384168152919092166020820152604081019190915260600190565b6020808252825182820181905260009190848201906040850190845b8181101561314057835183529284019291840191600101613124565b50909695505050505050565b602081526000612cdc6020830184613043565b6040815260006131726040830185613043565b905082151560208301529392505050565b60a08152600061319660a0830188613043565b82810360208401526131a88188613043565b95151560408401525050606081019290925260809091015292915050565b60208082526015908201527413585c9ad95d1c1b1858d9481a5cc81c185d5cd959605a1b604082015260600190565b602080825260119082015270125d195b48185b1c9958591e481d5cd959607a1b604082015260600190565b602080825260129082015271125d195b48191bd95cdb89dd08195e1a5cdd60721b604082015260600190565b6020808252601f908201527f5265656e7472616e637947756172643a207265656e7472616e742063616c6c00604082015260600190565b602080825260119082015270125d195b48185b1c9958591e481cdbdb19607a1b604082015260600190565b8a81526001600160a01b038a81166020830152604082018a9052606082018990528781166080830152861660a082015284151560c082015283151560e0820152821515610100820152610140810161330a610120830184613021565b9b9a5050505050505050505050565b84815260208101849052604081018390526080810161333b6060830184613021565b95945050505050565b600082198211156133575761335761344b565b500190565b60008261337757634e487b7160e01b81526012600452602481fd5b500490565b60008160001904831182151516156133965761339661344b565b500290565b6000828210156133ad576133ad61344b565b500390565b60005b838110156133cd5781810151838201526020016133b5565b83811115612af45750506000910152565b6000816133ed576133ed61344b565b506000190190565b600181811c9082168061340957607f821691505b6020821081141561342a57634e487b7160e01b600052602260045260246000fd5b50919050565b60006000198214156134445761344461344b565b5060010190565b634e487b7160e01b600052601160045260246000fd5b634e487b7160e01b600052604160045260246000fd5b6001600160a01b038116811461348c57600080fd5b5056fe114e74f6ea3bd819998f78687bfcb11b140da08e9b7d222fa9c1f1ba1f2aa122a49807205ce4d355092ef5a8a18f56e8913cf4a201fbe287825b095693c21775a2646970667358221220e0779b83247c39146f05a9cdf1cc5df6a5dda0532dde8648ed5a4e1e0bc5fe4564736f6c63430008040033",
  "linkReferences": {},
  "deployedLinkReferences": {}
}